:020000040000FA
:0400000006EF00F017
:100008000AED00F013EEEAF02AEF06F00600E9CF59
:1000180023F0EACF24F0E1CF25F0E2CF26F0D9CFC4
:1000280027F0DACF28F0F3CF29F0F4CF2AF001C077
:100038002BF002C02CF009C02DF00AC02EF00BC026
:100048002FF00CC030F014EE9CF0F29EF2A42FEFCB
:1000580000F031EF00F0C7EF01F0F294D66A4706DE
:10006800D8A0480647504810D8A43DEF00F03FEF0D
:1000780000F0C5EF01F02E0EE66E000EE66EE8C148
:10008800E6FFE9C1E6FF4EEC05F0270E0124D96E24
:10009800010E0220DA6EDE50DE10D8B456EF00F002
:1000A80058EF00F0E1EF00F0456A466A2E0EE66E62
:1000B800000EE66EE8C1E6FFE9C1E6FF4EEC05F08A
:1000C800020E0124D96E010E0220DA6E000EDF6ED8
:1000D8002E0EE66E000EE66EE8C1E6FFE9C1E6FF09
:1000E8004EEC05F02A0E0124D96E010E0220DA6EBC
:1000F800E8CFDFFF2E0EE66E000EE66EE8C1E6FFE3
:10010800E9C1E6FF4EEC05F0290E0124D96E010E77
:100118000220DA6EE0CFDFFF2E0EE66E000EE66EEE
:10012800E8C1E6FFE9C1E6FF4EEC05F02B0E01241D
:10013800D96E010E0220DA6ED8CFDFFF2E0EE66EE2
:10014800000EE66EE8C1E6FFE9C1E6FF4EEC05F0F9
:10015800270E0124D96E010E0220DA6E000EDE6E23
:10016800000EDD6E2E0EE66E000EE66EE8C1E6FFAE
:10017800E9C1E6FF4EEC05F0000E216E010E226E7D
:10018800070E2126000E222201502126025022228B
:1001980045502124D96E46502220DA6EFDCFDFFF6C
:1001A800454A462A0600FC50D8A4DDEF00F0DFEFF0
:1001B80000F0B6EF00F0F3EF00F02E0EE66E000E42
:1001C800E66EE8C1E6FFE9C1E6FF4EEC05F0020E77
:1001D8000124D96E010E0220DA6E000EDF6EB3EC38
:1001E80006F001C0E8F102C0E9F12E0EE66E000E3D
:1001F800E66EE8C1E6FFE9C1E6FF4EEC05F0270E22
:100208000124D96E010E0220DA6EDE50DE10D8A469
:1002180010EF01F012EF01F02DEF01F02E0EE66E57
:10022800000EE66EE8C1E6FFE9C1E6FF4EEC05F018
:10023800050E0124D96E010E0220DA6EDECF21F000
:10024800DDCF22F021C0FDFF22C0FEFFFF6AC0EF14
:1002580001F02E0EE66E000EE66EE8C1E6FFE9C17B
:10026800E6FF4EEC05F0020E0124D96E010E0220C5
:10027800DA6E010EDF6E2E0EE66E000EE66EE8C137
:10028800E6FFE9C1E6FF4EEC05F02A0E0124D96E1F
:10029800010E0220DA6EDF50216E21502E0EE66E1E
:1002A800000EE66EE8C1E6FFE9C1E6FF4EEC05F098
:1002B800290E0124D96E010E0220DA6EDF50E06E9D
:1002C8002E0EE66E000EE66EE8C1E6FFE9C1E6FF17
:1002D8004EEC05F02B0E0124D96E010E0220DA6EC9
:1002E800DF50D86E2E0EE66E000EE66EE8C1E6FF11
:1002F800E9C1E6FF4EEC05F0270E0124D96E010E88
:100308000220DA6EDECF21F0DDCF22F0FF0E2124AD
:10031800456EFF0E2220466EFC6AB7EF01F005001D
:100328002E0EE66E000EE66EE8C1E6FFE9C1E6FFB6
:100338004EEC05F0000E216E010E226E070E2126EE
:10034800000E22220150212602502222455021244B
:10035800D96E46502220DA6EDF50FD6EFE6AFF6AC3
:100368004506D8A0460645504610D8A4BEEF01F071
:10037800C0EF01F093EF01F0F28E000E486E0C0E04
:10038800476E18EC03F0F2A2CCEF01F0CEEF01F0CB
:10039800FEEF01F00001B15107E1080EB05DD8B0E1
:1003A800D8EF01F0DAEF01F0FEEF01F0316A326ABE
:1003B800000E346E010E336E356A366A060EE66E2E
:1003C800000EE66EB0C0E6FFB1C0E6FF4EEC05F0E9
:1003D800800E0124E96E000E0220EA6E20EE31F054
:1003E800050EDBCFEBFFE806FCE20001B04BB12BBA
:1003F800F292F28EF0A003EF02F005EF02F037EF71
:1004080002F00001B15107E1080EB05DD8B00FEF5E
:1004180002F011EF02F037EF02F0000E386E010E15
:10042800376E000E3A6E020E396E3B6A3C6A060E53
:10043800E66E000EE66EB0C0E6FFB1C0E6FF4EEC19
:1004480005F0800E0124E96E000E0220EA6E20EE0F
:1004580037F0050EDBCFEBFFE806FCE20001B04BFE
:10046800B12BF090F28E30C00CF02FC00BF02EC0E4
:100478000AF02DC009F02CC002F02BC001F02AC0F0
:10048800F4FF29C0F3FF28C0DAFF27C0D9FF26C030
:10049800E2FF25C0E1FF24C0EAFF23C0E9FF110005
:1004A800080EE126000EE22243504410D8A45FEF64
:1004B80002F061EF02F0FCEF02F00001B051B1115F
:1004C800D8B469EF02F06BEF02F0FCEF02F020EE17
:1004D80080F0060E016EFA0EDECFE3FFE828012E4B
:1004E800FBD7F80EE36AF90EE36AF80EE3CF0BF0D8
:1004F800F90EE3CF0CF0060E0B02F3CF09F0F4CFA0
:100508000AF00C02F3500A26860E0924D96E000E52
:100518000A20DA6EF80EE3CF0BF0F90EE3CF0CF0F9
:10052800060E0B02F3CF09F0F4CF0AF00C02F350D9
:100538000A26800E0924E96E000E0A20EA6E050ECE
:10054800DBCFEBFFE806FCE2F80EE350010F016E8B
:10055800F80E01C0E3FF016AF90EE3500120016EB5
:10056800F90E01C0E3FFF90EE3BEC8EF02F0F90E81
:10057800E3500CE1F80EE3CF01F0070E015ED8A0BE
:10058800C8EF02F0CAEF02F079EF02F00001B007FD
:10059800D8A0B107FA0EE124D96EFF0EE220DA6E78
:1005A80000EEB2F0050EDBCFEBFFE806FCE2000E32
:1005B800446E010E436E83B8E4EF02F0E7EF02F0F9
:1005C800010EE8EF02F0000EFF0A0C6E0C3A8350A1
:1005D8000C18EF0B0C18836EFE0EE124D96EFF0E7B
:1005E800E220DA6E000EDE6E000EDD6EFCEC04F02A
:1005F80043044410D8A403EF03F005EF03F058EFC9
:1006080002F00001B651B711D8A40DEF03F00FEFB7
:1006180003F058EF02F0FCEC04F058EF02F0F80E8B
:10062800E126FF0EE2221200E652E652E652E652B8
:10063800FE0EE36AFF0EE36AFC0EE36AFD0EE36A50
:10064800AAEF03F0FC0EE3CF0BF0FD0EE3CF0CF0A6
:100658002E0E0B02F3CF09F0F4CF0AF00C02F35080
:100668000A26020E0924D96E010E0A20DA6E030E3C
:10067800DE18D8A442EF03F044EF03F09BEF03F039
:10068800FC0EE3CF0BF0FD0EE3CF0CF02E0E0B02A9
:10069800F3CF09F0F4CF0AF00C02F3500A262C0E1F
:1006A8000924D96E010E0A20DA6EDE06000EDD5A24
:1006B800FC0EE3CF0BF0FD0EE3CF0CF02E0E0B0279
:1006C800F3CF09F0F4CF0AF00C02F3500A262C0EEF
:1006D8000924D96E010E0A20DA6EDE50DE10D8A485
:1006E80078EF03F07AEF03F09BEF03F0FC0EE3CF13
:1006F8000BF0FD0EE3CF0CF02E0E0B02F3CF09F03A
:10070800F4CF0AF00C02F3500A26020E0924D96E1F
:10071800010E0A20DA6E000EDF6E010E0B6E000E5F
:100728000C6EFE0E0BC0E3FFFF0E0CC0E3FFFC0EC9
:10073800E350010F016EFC0E01C0E3FF016AFD0EDC
:10074800E3500120016EFD0E01C0E3FFFC0EE3CF74
:1007580001F00101E651015CFD0EE3CF01F0E75124
:100768000158D8A0BAEF03F0BCEF03F026EF03F06E
:10077800FE0EE3CF01F0FF0EE3CF02F0E552E552A3
:10078800E552E5521200E652FB0EE3CF01F0FC0EF3
:10079800E3500110D8B4D3EF03F0D5EF03F030EFF6
:1007A80004F0FF0EE36AE32AEBEF03F0FB0EE350DD
:1007B800D890E834016EFB0E01C0E3FFFC0EE35055
:1007C800E834016EFC0E01C0E3FFFF0EE32AFC0EC5
:1007D800E3AEF1EF03F0F3EF03F0DAEF03F0FB0E13
:1007E800E3CF0BF0FC0EE3CF0CF0FD0EE3CF09F0E6
:1007F800FE0EE3CF0AF00B50095C0C500A58D8A043
:1008080008EF04F00AEF04F01CEF04F0FD0EE350CB
:10081800016EFB0EE350015EFD0E01C0E3FFFE0E0C
:10082800E350016EFC0EE350015AFE0E01C0E3FFD7
:10083800D890FC0EE332FB0EE332FF0EE350016E5C
:10084800010E015EFF0E01C0E3FFD8A42EEF04F0F5
:1008580030EF04F0F3EF03F0FD0EE3CF01F0FE0EEE
:10086800E3CF02F0FB0EE126FF0EE22212002E0E6D
:10087800E126000EE222010E0101E6250B6E000EB4
:10088800E7210C6ED20E0BC0E3FFD30E0CC0E3FFC2
:10089800E150D00FD96EE250DA6EFF0EDA22D50E93
:1008A800E124E96EFF0EE220EA6EDECFEEFFDDCF37
:1008B800EDFFD40EE124D96EFF0EE220DA6E000EB1
:1008C800DF6EE150CE0FD96EE250DA6EFF0EDA22FB
:1008D800D70EE124E96EFF0EE220EA6EDECFEEFFCE
:1008E800DDCFEDFFF90EE124D96EFF0EE220DA6EBE
:1008F800000EDE6E000EDD6ED20EE124D96EFF0E04
:10090800E220DA6E01EEE6F0EECF0BF0EDCF0CF060
:100918002E0E0B02F3CF09F0F4CF0AF00C02F350BD
:100928000A26000E0924E96E010E0A20EA6E2D0E31
:10093800DBCFEBFFE806FCE2E64BE72BCE0EE12629
:10094800FF0EE222120043044410D8A4AEEF04F0D4
:10095800B0EF04F0DCEF04F00001B605B711D8A43D
:10096800B8EF04F0BAEF04F0DCEF04F03F504010A9
:10097800D8A4C1EF04F0C3EF04F0DCEF04F020EEDC
:10098800B2F000EEB8F0050EDBCFEBFFE806FCE2B4
:10099800436A446A000E406E010E3F6E20EEB8F0C6
:1009A800060EDECFE6FFE82CD5EF04F099EC05F053
:1009B8000001B605B711D8A4E4EF04F0E6EF04F09F
:1009C800A7EF04F03F044010D8A4EDEF04F0EFEFD8
:1009D80004F0A7EF04F020EEB8F0060EDECFE6FF35
:1009E800E82CF2EF04F099EC05F0A7EF04F0120000
:1009F800100E415C270E4258D8B005EF05F007EFFE
:100A080005F00CEF05F08288828A8384414A422AE5
:100A1800100E415C270E4258D8A015EF05F017EFCD
:100A280005F030EF05F00001B405B511D8A41FEFAB
:100A380005F021EF05F030EF05F08298829A839453
:100A4800000EB76F010EB66F416A426A000E446E1F
:100A5800010E436E3F6A406A100E415C270E4258F1
:100A6800D8A039EF05F03BEF05F04DEF05F0000198
:100A7800B55109E1020EB45DD8A045EF05F047EF86
:100A880005F04DEF05F08394B407D8A0B507416A87
:100A9800426A1200E652E652FA0EE3CF0CF0FC0E60
:100AA800E3500C02FE0EF3CFE3FFFF0EF4CFE3FF9B
:100AB800FB0EE124D96EFF0EE220DA6EDF500C6ED9
:100AC800FC0EE3500C02F3CFF4FFF36AE150FE0F83
:100AD800D96EE250DA6EFF0EDA22F350DE26F450B9
:100AE800DD22FA0EE3CF0CF0FD0EE124D96EFF0EE5
:100AF800E220DA6EDF500C02F3CFF4FFF36AE15024
:100B0800FE0FD96EE250DA6EFF0EDA22F350DE26BF
:100B1800F450DD22FE0EE3CF01F0FF0EE3CF02F02A
:100B2800FA0EE126FF0EE2221200100E3D5C270E9F
:100B38003E58D8B0A2EF05F0A4EF05F0A7EF05F0F6
:100B480083863D4A3E2A100E3D5C270E3E58D8A0AB
:100B5800B0EF05F0B2EF05F0DEEF05F083963F6ADF
:100B6800406A3D6A3E6A000E0001B76F020EB66F1A
:100B7800FA0EE124D96EFF0EE220DA6E00EEEEF0F6
:100B8800EECF0BF0EDCF0CF0060E0B02F3CF09F011
:100B9800F4CF0AF00C02F3500A26BE0E0924E96EBF
:100BA800000E0A20EA6E050EDBCFEBFFE806FCE23A
:100BB800EE4BEF2BFA0EE126FF0EE2221200E65270
:100BC800E652FE0EE8C1E3FFFF0EE9C1E3FFE6C10E
:100BD800E6FFE7C1E6FFFC0EE350010F0B6EFD0ECA
:100BE800E3CF0CF0000E0C220BC0E6FF0CC0E6FFB2
:100BF800C7EC03F0FE0E01C0E3FFFF0E02C0E3FFE7
:100C0800FE0EE3CF0BF0FF0EE3CF0CF02E0E0B021F
:100C1800F3CF09F0F4CF0AF00C02F3500A26020EC3
:100C28000924D96E010E0A20DA6EDF50D8A41FEF0E
:100C380006F021EF06F0EBEF05F0FE0EE3CF01F032
:100C4800FF0EE3CF02F0E552E55212006C0EF66E8D
:100C58000D0EF76E000EF86E0900F5CF47F009008B
:100C6800F5CF48F001EEEAF022EE00F0EE6ADD5032
:100C7800D950FCE1DA50FAE101EE00F0EA0EEE6A32
:100C8800E806FDE100EE80F0700EEE6AE806FDE190
:100C980000EE3DF00A0EEE6AE806FDE1000176EF8F
:100CA80006F00101E86BE96BE66BE76B0001B06BDE
:100CB800B16BEE6BEF6B416A426A3D6A3E6A436A0A
:100CC800446A3F6A406AA2EC06F0600EE66E0D0EBA
:100CD800E66E000EE66E000EE66E3BEC04F092EC5B
:100CE80006F0120055EC06F04E0EE66E090EE66EA2
:100CF800020EE66E000EE66E3BEC04F0A80EE66E01
:100D0800040EE66E020EE66E000EE66E3BEC04F094
:100D1800AAEC06F08EEF06F006EF00F095809582BB
:100D28009594959695989490949294949496949872
:100D3800949A949C949E939093921200F28AF28CC7
:100D4800D59AD596070ED512D66A1200F28ED58E90
:100D5800F28CF288F0861200B0EF06F01200E3EC95
:060D680005F012000C0072
:020000040020DA
:08000000FFFFFFFFFFFFFFFF00
:020000040030CA
:0E000000FF071F1EFF8385FF0FC00FE00F409C
:00000001FF
