:020000040000FA
:0400000006EF00F017
:100008000AED00F013EEEAF076EF06F00600E9CF0D
:1000180023F0EACF24F0E1CF25F0E2CF26F0D9CFC4
:1000280027F0DACF28F0F3CF29F0F4CF2AF001C077
:100038002BF002C02CF009C02DF00AC02EF00BC026
:100048002FF00CC030F014EE9CF0F29EF2A42FEFCB
:1000580000F031EF00F0C7EF01F0F294D66A3B06EA
:10006800D8A03C063B503C10D8A43DEF00F03FEF31
:1000780000F0C5EF01F02E0EE66E000EE66EE8C148
:10008800E6FFE9C1E6FF54EC05F0270E0124D96E1E
:10009800010E0220DA6EDE50DE10D8B456EF00F002
:1000A80058EF00F0E1EF00F0396A3A6A2E0EE66E7A
:1000B800000EE66EE8C1E6FFE9C1E6FF54EC05F084
:1000C800020E0124D96E010E0220DA6E000EDF6ED8
:1000D8002E0EE66E000EE66EE8C1E6FFE9C1E6FF09
:1000E80054EC05F02A0E0124D96E010E0220DA6EB6
:1000F800E8CFDFFF2E0EE66E000EE66EE8C1E6FFE3
:10010800E9C1E6FF54EC05F0290E0124D96E010E71
:100118000220DA6EE0CFDFFF2E0EE66E000EE66EEE
:10012800E8C1E6FFE9C1E6FF54EC05F02B0E012417
:10013800D96E010E0220DA6ED8CFDFFF2E0EE66EE2
:10014800000EE66EE8C1E6FFE9C1E6FF54EC05F0F3
:10015800270E0124D96E010E0220DA6E000EDE6E23
:10016800000EDD6E2E0EE66E000EE66EE8C1E6FFAE
:10017800E9C1E6FF54EC05F0000E216E010E226E77
:10018800070E2126000E222201502126025022228B
:1001980039502124D96E3A502220DA6EFDCFDFFF84
:1001A800394A3A2A0600FC50D8A4DDEF00F0DFEF08
:1001B80000F0B6EF00F0F3EF00F02E0EE66E000E42
:1001C800E66EE8C1E6FFE9C1E6FF54EC05F0020E71
:1001D8000124D96E010E0220DA6E000EDF6EF5ECF6
:1001E80006F001C0E8F102C0E9F12E0EE66E000E3D
:1001F800E66EE8C1E6FFE9C1E6FF54EC05F0270E1C
:100208000124D96E010E0220DA6EDE50DE10D8A469
:1002180010EF01F012EF01F02DEF01F02E0EE66E57
:10022800000EE66EE8C1E6FFE9C1E6FF54EC05F012
:10023800050E0124D96E010E0220DA6EDECF21F000
:10024800DDCF22F021C0FDFF22C0FEFFFF6AC0EF14
:1002580001F02E0EE66E000EE66EE8C1E6FFE9C17B
:10026800E6FF54EC05F0020E0124D96E010E0220BF
:10027800DA6E010EDF6E2E0EE66E000EE66EE8C137
:10028800E6FFE9C1E6FF54EC05F02A0E0124D96E19
:10029800010E0220DA6EDF50216E21502E0EE66E1E
:1002A800000EE66EE8C1E6FFE9C1E6FF54EC05F092
:1002B800290E0124D96E010E0220DA6EDF50E06E9D
:1002C8002E0EE66E000EE66EE8C1E6FFE9C1E6FF17
:1002D80054EC05F02B0E0124D96E010E0220DA6EC3
:1002E800DF50D86E2E0EE66E000EE66EE8C1E6FF11
:1002F800E9C1E6FF54EC05F0270E0124D96E010E82
:100308000220DA6EDECF21F0DDCF22F0FF0E2124AD
:10031800396EFF0E22203A6EFC6AB7EF01F0050035
:100328002E0EE66E000EE66EE8C1E6FFE9C1E6FFB6
:1003380054EC05F0000E216E010E226E070E2126E8
:10034800000E222201502126025022223950212457
:10035800D96E3A502220DA6EDF50FD6EFE6AFF6ACF
:100368003906D8A03A0639503A10D8A4BEEF01F0A1
:10037800C0EF01F093EF01F0F28E000E3C6E0C0E10
:100388003B6ED2EC02F0F2A2CCEF01F0CEEF01F01E
:10039800DCEF01F00001B15107E1080EB05DD8B003
:1003A800D8EF01F0DAEF01F0DCEF01F030EC06F005
:1003B800F0A0E1EF01F0E3EF01F0F1EF01F000014F
:1003C800B15107E1080EB05DD8B0EDEF01F0EFEFE5
:1003D80001F0F1EF01F008EC05F030C00CF02FC08F
:1003E8000BF02EC00AF02DC009F02CC002F02BC073
:1003F80001F02AC0F4FF29C0F3FF28C0DAFF27C0A4
:10040800D9FF26C0E2FF25C0E1FF24C0EAFF23C0D0
:10041800E9FF1100080EE126000EE22237503810DD
:10042800D8A419EF02F01BEF02F0B6EF02F00001BA
:10043800B051B111D8B423EF02F025EF02F0B6EFB6
:1004480002F020EE80F0060E016EFA0EDECFE3FF1A
:10045800E828012EFBD7F80EE36AF90EE36AF80ED6
:10046800E3CF0BF0F90EE3CF0CF0060E0B02F3CF3F
:1004780009F0F4CF0AF00C02F3500A26860E09247C
:10048800D96E000E0A20DA6EF80EE3CF0BF0F90EE3
:10049800E3CF0CF0060E0B02F3CF09F0F4CF0AF00D
:1004A8000C02F3500A26800E0924E96E000E0A2079
:1004B800EA6E050EDBCFEBFFE806FCE2F80EE35030
:1004C800010F016EF80E01C0E3FF016AF90EE35057
:1004D8000120016EF90E01C0E3FFF90EE3BE82EFC1
:1004E80002F0F90EE3500CE1F80EE3CF01F0070E2D
:1004F800015ED8A082EF02F084EF02F033EF02F041
:100508000001B007D8A0B107FA0EE124D96EFF0E9A
:10051800E220DA6E00EEB2F0050EDBCFEBFFE80664
:10052800FCE2000E386E010E376E83B89EEF02F0C3
:10053800A1EF02F0010EA2EF02F0000EFF0A0C6E0E
:100548000C3A83500C18EF0B0C18836EFE0EE12446
:10055800D96EFF0EE220DA6E000EDE6E000EDD6E42
:10056800B6EC04F037043810D8A4BDEF02F0BFEFA2
:1005780002F012EF02F00001B651B711D8A4C7EF8C
:1005880002F0C9EF02F012EF02F0B6EC04F012EF3D
:1005980002F0F80EE126FF0EE2221200E652E652C1
:1005A800E652E652FE0EE36AFF0EE36AFC0EE36AC9
:1005B800FD0EE36A64EF03F0FC0EE3CF0BF0FD0ED3
:1005C800E3CF0CF02E0E0B02F3CF09F0F4CF0AF0B4
:1005D8000C02F3500A26020E0924D96E010E0A20D5
:1005E800DA6E030EDE18D8A4FCEF02F0FEEF02F07C
:1005F80055EF03F0FC0EE3CF0BF0FD0EE3CF0CF04C
:100608002E0E0B02F3CF09F0F4CF0AF00C02F350D0
:100618000A262C0E0924D96E010E0A20DA6EDE068F
:10062800000EDD5AFC0EE3CF0BF0FD0EE3CF0CF00D
:100638002E0E0B02F3CF09F0F4CF0AF00C02F350A0
:100648000A262C0E0924D96E010E0A20DA6EDE5015
:10065800DE10D8A432EF03F034EF03F055EF03F0C7
:10066800FC0EE3CF0BF0FD0EE3CF0CF02E0E0B02C9
:10067800F3CF09F0F4CF0AF00C02F3500A26020E69
:100688000924D96E010E0A20DA6E000EDF6E010E03
:100698000B6E000E0C6EFE0E0BC0E3FFFF0E0CC0BF
:1006A800E3FFFC0EE350010F016EFC0E01C0E3FFF7
:1006B800016AFD0EE3500120016EFD0E01C0E3FF4B
:1006C800FC0EE3CF01F00101E651015CFD0EE3CF22
:1006D80001F0E7510158D8A074EF03F076EF03F06A
:1006E800E0EF02F0FE0EE3CF01F0FF0EE3CF02F0E1
:1006F800E552E552E552E5521200E652FB0EE3CF11
:1007080001F0FC0EE3500110D8B48DEF03F08FEF29
:1007180003F0EAEF03F0FF0EE36AE32AA5EF03F024
:10072800FB0EE350D890E834016EFB0E01C0E3FFE6
:10073800FC0EE350E834016EFC0E01C0E3FFFF0E2F
:10074800E32AFC0EE3AEABEF03F0ADEF03F094EF5A
:1007580003F0FB0EE3CF0BF0FC0EE3CF0CF0FD0E25
:10076800E3CF09F0FE0EE3CF0AF00B50095C0C5002
:100778000A58D8A0C2EF03F0C4EF03F0D6EF03F095
:10078800FD0EE350016EFB0EE350015EFD0E01C04D
:10079800E3FFFE0EE350016EFC0EE350015AFE0E1D
:1007A80001C0E3FFD890FC0EE332FB0EE332FF0EEC
:1007B800E350016E010E015EFF0E01C0E3FFD8A4F5
:1007C800E8EF03F0EAEF03F0ADEF03F0FD0EE3CF3F
:1007D80001F0FE0EE3CF02F0FB0EE126FF0EE2224F
:1007E80012002E0EE126000EE222010E0101E6257E
:1007F8000B6E000EE7210C6ED20E0BC0E3FFD30E7A
:100808000CC0E3FFE150D00FD96EE250DA6EFF0E54
:10081800DA22D50EE124E96EFF0EE220EA6EDECF81
:10082800EEFFDDCFEDFFD40EE124D96EFF0EE220FE
:10083800DA6E000EDF6EE150CE0FD96EE250DA6E3E
:10084800FF0EDA22D70EE124E96EFF0EE220EA6EEF
:10085800DECFEEFFDDCFEDFFF90EE124D96EFF0EFE
:10086800E220DA6E000EDE6E000EDD6ED20EE1249E
:10087800D96EFF0EE220DA6E01EEE6F0EECF0BF055
:10088800EDCF0CF02E0E0B02F3CF09F0F4CF0AF0E7
:100898000C02F3500A26000E0924E96E010E0A2004
:1008A800EA6E2D0EDBCFEBFFE806FCE2E64BE72B0A
:1008B800CE0EE126FF0EE222120037043810D8A42B
:1008C80068EF04F06AEF04F096EF04F00001B60553
:1008D800B711D8A472EF04F074EF04F096EF04F0A7
:1008E80033503410D8A47BEF04F07DEF04F096EF7A
:1008F80004F020EEB2F000EEB8F0050EDBCFEBFF0F
:10090800E806FCE2376A386A000E346E010E336E70
:1009180020EEB8F0060EDECFE6FFE82C8FEF04F0ED
:100928009FEC05F00001B605B711D8A49EEF04F0BE
:10093800A0EF04F061EF04F033043410D8A4A7EF5B
:1009480004F0A9EF04F061EF04F020EEB8F0060E11
:10095800DECFE6FFE82CACEF04F09FEC05F061EF8A
:1009680004F01200100E355C270E3658D8B0BFEFD1
:1009780004F0C1EF04F0C6EF04F08288828A838411
:10098800354A362A100E355C270E3658D8A0CFEFD8
:1009980004F0D1EF04F0EAEF04F00001B405B5115A
:1009A800D8A4D9EF04F0DBEF04F0EAEF04F0829862
:1009B800829A8394000EB76F010EB66F356A366A55
:1009C800000E386E010E376E336A346A100E355CCD
:1009D800270E3658D8A0F3EF04F0F5EF04F007EF30
:1009E80005F00001B55109E1020EB45DD8A0FFEF92
:1009F80004F001EF05F007EF05F08394B407D8A0E1
:100A0800B507356A366A1200060EE126000EE222A4
:100A1800010E0B6E000E0C6EFA0E0BC0E3FFFB0E00
:100A28000CC0E3FFFC0EE124D96EFF0EE220DA6E63
:100A3800020EDE6E000EDD6EFE0EE124D96EFF0E94
:100A4800E220DA6E000EDE6E000EDD6EFA0EE12494
:100A5800D96EFF0EE220DA6E00EEB0F0EECF0BF0AA
:100A6800EDCF0CF0060E0B02F3CF09F0F4CF0AF02D
:100A78000C02F3500A26800E0924E96E000E0A20A3
:100A8800EA6E050EDBCFEBFFE806FCE20001B04B97
:100A9800B12BF090F28EFA0EE126FF0EE222120040
:100AA800E652E652FA0EE3CF0CF0FC0EE3500C02CD
:100AB800FE0EF3CFE3FFFF0EF4CFE3FFFB0EE124BE
:100AC800D96EFF0EE220DA6EDF500C6EFC0EE3509A
:100AD8000C02F3CFF4FFF36AE150FE0FD96EE25037
:100AE800DA6EFF0EDA22F350DE26F450DD22FA0E1B
:100AF800E3CF0CF0FD0EE124D96EFF0EE220DA6E92
:100B0800DF500C02F3CFF4FFF36AE150FE0FD96E09
:100B1800E250DA6EFF0EDA22F350DE26F450DD22C0
:100B2800FE0EE3CF01F0FF0EE3CF02F0FA0EE1264E
:100B3800FF0EE2221200100E315C270E3258D8B098
:100B4800A8EF05F0AAEF05F0ADEF05F08386314A6E
:100B5800322A100E315C270E3258D8A0B6EF05F0B5
:100B6800B8EF05F0E4EF05F08396336A346A316A2A
:100B7800326A000E0001B76F020EB66FFA0EE1245A
:100B8800D96EFF0EE220DA6E00EEEEF0EECF0BF03B
:100B9800EDCF0CF0060E0B02F3CF09F0F4CF0AF0FC
:100BA8000C02F3500A26BE0E0924E96E000E0A2034
:100BB800EA6E050EDBCFEBFFE806FCE2EE4BEF2B0F
:100BC800FA0EE126FF0EE2221200E652E652FE0E6F
:100BD800E8C1E3FFFF0EE9C1E3FFE6C1E6FFE7C1B5
:100BE800E6FFFC0EE350010F0B6EFD0EE3CF0CF099
:100BF800000E0C220BC0E6FF0CC0E6FF81EC03F0F0
:100C0800FE0E01C0E3FFFF0E02C0E3FFFE0EE3CFBE
:100C18000BF0FF0EE3CF0CF02E0E0B02F3CF09F012
:100C2800F4CF0AF00C02F3500A26020E0924D96EFA
:100C3800010E0A20DA6EDF50D8A425EF06F027EF60
:100C480006F0F1EF05F0FE0EE3CF01F0FF0EE3CF63
:100C580002F0E552E5521200060EE126000EE222ED
:100C6800FA0EE36AFB0EE36AFC0EE124D96EFF0E6E
:100C7800E220DA6E010EDE6E000EDD6EFE0EE1245D
:100C8800D96EFF0EE220DA6E000EDE6E000EDD6E0B
:100C9800FA0EE124D96EFF0EE220DA6E00EEB0F013
:100CA800EECF0BF0EDCF0CF0060E0B02F3CF09F0F0
:100CB800F4CF0AF00C02F3500A26800E0924E96EDC
:100CC800000E0A20EA6E050EDBCFEBFFE806FCE219
:100CD8000001B04BB12BF292F28EFA0EE126FF0E14
:100CE800E2221200F00EF66E0D0EF76E000EF86E90
:100CF8000900F5CF3BF00900F5CF3CF001EEEAF032
:100D080022EE00F0EE6ADD50D950FCE1DA50FAE14B
:100D180001EE00F0EA0EEE6AE806FDE100EE80F072
:100D2800700EEE6AE806FDE100EE31F00A0EEE6A9A
:100D3800E806FDE10001C2EF06F00101E86BE96B8E
:100D4800E66BE76B0001B06BB16BEE6BEF6B356A6E
:100D5800366A316A326A376A386A336A346ADEEC6C
:100D680006F0E40EE66E0D0EE66E000EE66E000E60
:100D7800E66EF5EC03F0ECEC06F01200A1EC06F0E0
:100D8800C20EE66E080EE66E020EE66E000EE66E07
:100D9800F5EC03F01C0EE66E040EE66E020EE66E2F
:100DA800000EE66EF5EC03F0E6EC06F0DAEF06F07E
:100DB80006EF00F0F28AF28CD59AD596070ED51276
:100DC800D66A1200F28ED58EF28CF288F086120066
:100DD800959495969598939093921200F2EF06F059
:0A0DE8001200E9EC05F012000C0007
:020000040020DA
:08000000FFFFFFFFFFFFFFFF00
:020000040030CA
:0E000000FF071F1EFF8185FF0FC00FE00F409E
:00000001FF
