:020000040000FA
:0400000006EF00F017
:100008000AED00F013EEEAF06FEF06F00600E9CF14
:1000180023F0EACF24F0E1CF25F0E2CF26F0D9CFC4
:1000280027F0DACF28F0F3CF29F0F4CF2AF001C077
:100038002BF002C02CF009C02DF00AC02EF00BC026
:100048002FF00CC030F014EE9CF0F29EF2A42FEFCB
:1000580000F031EF00F0C7EF01F0F294D66A3B06EA
:10006800D8A03C063B503C10D8A43DEF00F03FEF31
:1000780000F0C5EF01F02E0EE66E000EE66EE8C148
:10008800E6FFE9C1E6FF4BEC05F0270E0124D96E27
:10009800010E0220DA6EDE50DE10D8B456EF00F002
:1000A80058EF00F0E1EF00F0396A3A6A2E0EE66E7A
:1000B800000EE66EE8C1E6FFE9C1E6FF4BEC05F08D
:1000C800020E0124D96E010E0220DA6E000EDF6ED8
:1000D8002E0EE66E000EE66EE8C1E6FFE9C1E6FF09
:1000E8004BEC05F02A0E0124D96E010E0220DA6EBF
:1000F800E8CFDFFF2E0EE66E000EE66EE8C1E6FFE3
:10010800E9C1E6FF4BEC05F0290E0124D96E010E7A
:100118000220DA6EE0CFDFFF2E0EE66E000EE66EEE
:10012800E8C1E6FFE9C1E6FF4BEC05F02B0E012420
:10013800D96E010E0220DA6ED8CFDFFF2E0EE66EE2
:10014800000EE66EE8C1E6FFE9C1E6FF4BEC05F0FC
:10015800270E0124D96E010E0220DA6E000EDE6E23
:10016800000EDD6E2E0EE66E000EE66EE8C1E6FFAE
:10017800E9C1E6FF4BEC05F0000E216E010E226E80
:10018800070E2126000E222201502126025022228B
:1001980039502124D96E3A502220DA6EFDCFDFFF84
:1001A800394A3A2A0600FC50D8A4DDEF00F0DFEF08
:1001B80000F0B6EF00F0F3EF00F02E0EE66E000E42
:1001C800E66EE8C1E6FFE9C1E6FF4BEC05F0020E7A
:1001D8000124D96E010E0220DA6E000EDF6EEEECFD
:1001E80006F001C0E8F102C0E9F12E0EE66E000E3D
:1001F800E66EE8C1E6FFE9C1E6FF4BEC05F0270E25
:100208000124D96E010E0220DA6EDE50DE10D8A469
:1002180010EF01F012EF01F02DEF01F02E0EE66E57
:10022800000EE66EE8C1E6FFE9C1E6FF4BEC05F01B
:10023800050E0124D96E010E0220DA6EDECF21F000
:10024800DDCF22F021C0FDFF22C0FEFFFF6AC0EF14
:1002580001F02E0EE66E000EE66EE8C1E6FFE9C17B
:10026800E6FF4BEC05F0020E0124D96E010E0220C8
:10027800DA6E010EDF6E2E0EE66E000EE66EE8C137
:10028800E6FFE9C1E6FF4BEC05F02A0E0124D96E22
:10029800010E0220DA6EDF50216E21502E0EE66E1E
:1002A800000EE66EE8C1E6FFE9C1E6FF4BEC05F09B
:1002B800290E0124D96E010E0220DA6EDF50E06E9D
:1002C8002E0EE66E000EE66EE8C1E6FFE9C1E6FF17
:1002D8004BEC05F02B0E0124D96E010E0220DA6ECC
:1002E800DF50D86E2E0EE66E000EE66EE8C1E6FF11
:1002F800E9C1E6FF4BEC05F0270E0124D96E010E8B
:100308000220DA6EDECF21F0DDCF22F0FF0E2124AD
:10031800396EFF0E22203A6EFC6AB7EF01F0050035
:100328002E0EE66E000EE66EE8C1E6FFE9C1E6FFB6
:100338004BEC05F0000E216E010E226E070E2126F1
:10034800000E222201502126025022223950212457
:10035800D96E3A502220DA6EDF50FD6EFE6AFF6ACF
:100368003906D8A03A0639503A10D8A4BEEF01F0A1
:10037800C0EF01F093EF01F0F28E000E3C6E0C0E10
:100388003B6EC7EC02F0F2A2CCEF01F0CEEF01F029
:10039800D1EF01F08388E0EC05F0F0A0D6EF01F092
:1003A800D8EF01F0E6EF01F00001B15107E1080EC6
:1003B800B05DD8B0E2EF01F0E4EF01F0E6EF01F054
:1003C800FDEC04F030C00CF02FC00BF02EC00AF08A
:1003D8002DC009F02CC002F02BC001F02AC0F4FF98
:1003E80029C0F3FF28C0DAFF27C0D9FF26C0E2FFE3
:1003F80025C0E1FF24C0EAFF23C0E9FF1100080E71
:10040800E126000EE22237503810D8A40EEF02F091
:1004180010EF02F0ABEF02F00001B051B111D8B407
:1004280018EF02F01AEF02F0ABEF02F020EE80F0C6
:10043800060E016EFA0EDECFE3FFE828012EFBD789
:10044800F80EE36AF90EE36AF80EE3CF0BF0F90E43
:10045800E3CF0CF0060E0B02F3CF09F0F4CF0AF04D
:100468000C02F3500A26860E0924D96E000E0A20C3
:10047800DA6EF80EE3CF0BF0F90EE3CF0CF0060EB0
:100488000B02F3CF09F0F4CF0AF00C02F3500A265E
:10049800800E0924E96E000E0A20EA6E050EDBCFF5
:1004A800EBFFE806FCE2F80EE350010F016EF80ED0
:1004B80001C0E3FF016AF90EE3500120016EF90E55
:1004C80001C0E3FFF90EE3BE77EF02F0F90EE35047
:1004D8000CE1F80EE3CF01F0070E015ED8A077EF2C
:1004E80002F079EF02F028EF02F00001B007D8A07F
:1004F800B107FA0EE124D96EFF0EE220DA6E00EEA3
:10050800B2F0050EDBCFEBFFE806FCE2000E386E1A
:10051800010E376E83B893EF02F096EF02F0010EEA
:1005280097EF02F0000EFF0A0C6E0C3A83500C187D
:10053800EF0B0C18836EFE0EE124D96EFF0EE2203D
:10054800DA6E000EDE6E000EDD6EABEC04F03704E2
:100558003810D8A4B2EF02F0B4EF02F007EF02F0BF
:100568000001B651B711D8A4BCEF02F0BEEF02F0FB
:1005780007EF02F0ABEC04F007EF02F0F80EE1260B
:10058800FF0EE2221200E652E652E652E652FE0E54
:10059800E36AFF0EE36AFC0EE36AFD0EE36A59EFB5
:1005A80003F0FC0EE3CF0BF0FD0EE3CF0CF02E0EA4
:1005B8000B02F3CF09F0F4CF0AF00C02F3500A262D
:1005C800020E0924D96E010E0A20DA6E030EDE1817
:1005D800D8A4F1EF02F0F3EF02F04AEF03F0FC0EBB
:1005E800E3CF0BF0FD0EE3CF0CF02E0E0B02F3CF92
:1005F80009F0F4CF0AF00C02F3500A262C0E092455
:10060800D96E010E0A20DA6EDE06000EDD5AFC0EE7
:10061800E3CF0BF0FD0EE3CF0CF02E0E0B02F3CF61
:1006280009F0F4CF0AF00C02F3500A262C0E092424
:10063800D96E010E0A20DA6EDE50DE10D8A427EF3C
:1006480003F029EF03F04AEF03F0FC0EE3CF0BF0C1
:10065800FD0EE3CF0CF02E0E0B02F3CF09F0F4CF12
:100668000AF00C02F3500A26020E0924D96E010E74
:100678000A20DA6E000EDF6E010E0B6E000E0C6E95
:10068800FE0E0BC0E3FFFF0E0CC0E3FFFC0EE350B1
:10069800010F016EFC0E01C0E3FF016AFD0EE3507D
:1006A8000120016EFD0E01C0E3FFFC0EE3CF01F057
:1006B8000101E651015CFD0EE3CF01F0E75101585D
:1006C800D8A069EF03F06BEF03F0D5EF02F0FE0E50
:1006D800E3CF01F0FF0EE3CF02F0E552E552E55219
:1006E800E5521200E652FB0EE3CF01F0FC0EE35098
:1006F8000110D8B482EF03F084EF03F0DFEF03F0CA
:10070800FF0EE36AE32A9AEF03F0FB0EE350D8905A
:10071800E834016EFB0E01C0E3FFFC0EE350E83441
:10072800016EFC0E01C0E3FFFF0EE32AFC0EE3AEF0
:10073800A0EF03F0A2EF03F089EF03F0FB0EE3CF85
:100748000BF0FC0EE3CF0CF0FD0EE3CF09F0FE0E2C
:10075800E3CF0AF00B50095C0C500A58D8A0B7EF49
:1007680003F0B9EF03F0CBEF03F0FD0EE350016E99
:10077800FB0EE350015EFD0E01C0E3FFFE0EE350E9
:10078800016EFC0EE350015AFE0E01C0E3FFD89043
:10079800FC0EE332FB0EE332FF0EE350016E010E56
:1007A800015EFF0E01C0E3FFD8A4DDEF03F0DFEF29
:1007B80003F0A2EF03F0FD0EE3CF01F0FE0EE3CF4E
:1007C80002F0FB0EE126FF0EE22212002E0EE126B9
:1007D800000EE222010E0101E6250B6E000EE72154
:1007E8000C6ED20E0BC0E3FFD30E0CC0E3FFE1503A
:1007F800D00FD96EE250DA6EFF0EDA22D50EE12460
:10080800E96EFF0EE220EA6EDECFEEFFDDCFEDFFF0
:10081800D40EE124D96EFF0EE220DA6E000EDF6EF0
:10082800E150CE0FD96EE250DA6EFF0EDA22D70E03
:10083800E124E96EFF0EE220EA6EDECFEEFFDDCFA7
:10084800EDFFF90EE124D96EFF0EE220DA6E000EFC
:10085800DE6E000EDD6ED20EE124D96EFF0EE220B0
:10086800DA6E01EEE6F0EECF0BF0EDCF0CF02E0EC7
:100878000B02F3CF09F0F4CF0AF00C02F3500A266A
:10088800000E0924E96E010E0A20EA6E2D0EDBCF58
:10089800EBFFE806FCE2E64BE72BCE0EE126FF0E67
:1008A800E222120037043810D8A45DEF04F05FEF9D
:1008B80004F08BEF04F00001B605B711D8A467EF78
:1008C80004F069EF04F08BEF04F033503410D8A42F
:1008D80070EF04F072EF04F08BEF04F020EEB2F04A
:1008E80000EEB8F0050EDBCFEBFFE806FCE2376A56
:1008F800386A000E346E010E336E20EEB8F0060E24
:10090800DECFE6FFE82C84EF04F096EC05F000015A
:10091800B605B711D8A493EF04F095EF04F056EF9D
:1009280004F033043410D8A49CEF04F09EEF04F0D4
:1009380056EF04F020EEB8F0060EDECFE6FFE82C06
:10094800A1EF04F096EC05F056EF04F01200100E3B
:10095800355C270E3658D8B0B4EF04F0B6EF04F083
:10096800BBEF04F08288828A8384354A362A100EC7
:10097800355C270E3658D8A0C4EF04F0C6EF04F053
:10098800DFEF04F00001B405B511D8A4CEEF04F0F0
:10099800D0EF04F0DFEF04F08298829A8394000E7F
:1009A800B76F010EB66F356A366A000E386E010EE3
:1009B800376E336A346A100E355C270E3658D8A065
:1009C800E8EF04F0EAEF04F0FCEF04F00001B551A1
:1009D80009E1020EB45DD8A0F4EF04F0F6EF04F0DC
:1009E800FCEF04F08394B407D8A0B507356A366ADB
:1009F8001200060EE126000EE222010E0B6E000E1A
:100A08000C6EFA0E0BC0E3FFFB0E0CC0E3FFFC0EEE
:100A1800E124D96EFF0EE220DA6E020EDE6E000EC1
:100A2800DD6EFE0EE124D96EFF0EE220DA6E000EB6
:100A3800DE6E000EDD6EFA0EE124D96EFF0EE220A6
:100A4800DA6E00EEB0F0EECF0BF0EDCF0CF0060E44
:100A58000B02F3CF09F0F4CF0AF00C02F3500A2688
:100A6800800E0924E96E000E0A20EA6E050EDBCF1F
:100A7800EBFFE806FCE20001B04BB12BF090F28EE0
:100A880001EF05F0FA0EE126FF0EE2221200E6520F
:100A9800E652FA0EE3CF0CF0FC0EE3500C02FE0E09
:100AA800F3CFE3FFFF0EF4CFE3FFFB0EE124D96E93
:100AB800FF0EE220DA6EDF500C6EFC0EE3500C02E3
:100AC800F3CFF4FFF36AE150FE0FD96EE250DA6E0D
:100AD800FF0EDA22F350DE26F450DD22FA0EE3CFC1
:100AE8000CF0FD0EE124D96EFF0EE220DA6EDF5025
:100AF8000C02F3CFF4FFF36AE150FE0FD96EE25017
:100B0800DA6EFF0EDA22F350DE26F450DD22FE0EF6
:100B1800E3CF01F0FF0EE3CF02F0FA0EE126FF0E5D
:100B2800E2221200100E315C270E3258D8B09FEF27
:100B380005F0A1EF05F0A4EF05F08386314A322ACB
:100B4800100E315C270E3258D8A0ADEF05F0AFEF8C
:100B580005F0DBEF05F08396336A346A316A326A4E
:100B6800000E0001B76F020EB66FFA0EE124D96EBF
:100B7800FF0EE220DA6E00EEEEF0EECF0BF0EDCFD6
:100B88000CF0060E0B02F3CF09F0F4CF0AF00C02BA
:100B9800F3500A26BE0E0924E96E000E0A20EA6EFA
:100BA800050EDBCFEBFFE806FCE2EE4BEF2BFA0E6F
:100BB800E126FF0EE2221200060EE126000EE222D6
:100BC800FA0EE36AFB0EE36AFC0EE124D96EFF0E0F
:100BD800E220DA6E010EDE6E000EDD6EFE0EE124FE
:100BE800D96EFF0EE220DA6E000EDE6E000EDD6EAC
:100BF800FA0EE124D96EFF0EE220DA6E00EEB0F0B4
:100C0800EECF0BF0EDCF0CF0060E0B02F3CF09F090
:100C1800F4CF0AF00C02F3500A26800E0924E96E7C
:100C2800000E0A20EA6E050EDBCFEBFFE806FCE2B9
:100C38000001B04BB12BF292F28EE4EF05F0FA0E00
:100C4800E126FF0EE2221200E652E652FE0EE8C14D
:100C5800E3FFFF0EE9C1E3FFE6C1E6FFE7C1E6FFF8
:100C6800FC0EE350010F0B6EFD0EE3CF0CF0000EEF
:100C78000C220BC0E6FF0CC0E6FF76EC03F0FE0E7C
:100C880001C0E3FFFF0E02C0E3FFFE0EE3CF0BF04F
:100C9800FF0EE3CF0CF02E0E0B02F3CF09F0F4CFCA
:100CA8000AF00C02F3500A26020E0924D96E010E2E
:100CB8000A20DA6EDF50D8A464EF06F066EF06F07B
:100CC80030EF06F0FE0EE3CF01F0FF0EE3CF02F0A7
:100CD800E552E5521200E20EF66E0D0EF76E000EAA
:100CE800F86E0900F5CF3BF00900F5CF3CF001EEB6
:100CF800EAF022EE00F0EE6ADD50D950FCE1DA505D
:100D0800FAE101EE00F0EA0EEE6AE806FDE100EE17
:100D180080F0700EEE6AE806FDE100EE31F00A0E92
:100D2800EE6AE806FDE10001BBEF06F00101E86BA1
:100D3800E96BE66BE76B0001B06BB16BEE6BEF6BC9
:100D4800356A366A316A326A376A386A336A346AA7
:100D5800D7EC06F0D60EE66E0D0EE66E000EE66EC9
:100D6800000EE66EEAEC03F0E5EC06F012009AECF1
:100D780006F0AC0EE66E080EE66E020EE66E000E8B
:100D8800E66EEAEC03F0060EE66E040EE66E020E60
:100D9800E66E000EE66EEAEC03F0DFEC06F0D3EF49
:100DA80006F006EF00F0F28AF28CD59AD596070E77
:100DB800D512D66A1200F28ED58EF28CF288F086A1
:100DC8001200959495969598939093921200EBEF54
:0C0DD80006F0120028EC06F012000C00DF
:020000040020DA
:08000000FFFFFFFFFFFFFFFF00
:020000040030CA
:0E000000FF071F1EFF8385FF0FC00FE00F409C
:00000001FF
