:020000040000FA
:0400000006EF00F017
:100008000AED00F013EEEAF08CEF05F00600E1CF00
:100018005BF0E2CF5CF0D9CF5DF0DACF5EF0F3CFE2
:100028005FF0F4CF60F039C061F03AC062F041C0CF
:1000380063F042C064F043C065F044C066F014EE5B
:100048009CF0F29EF2A42BEF00F02DEF00F0C3EF2E
:1000580001F0F294D66A6706D8A06806675068105F
:10006800D8A439EF00F03BEF00F0C1EF01F02E0EFD
:10007800E66E000EE66EE8C1E6FFE9C1E6FF1BEC9E
:1000880005F0270E3924D96E010E3A20DA6EDE50BB
:10009800DE10D8B452EF00F054EF00F0DDEF00F0BE
:1000A800376A386A2E0EE66E000EE66EE8C1E6FF85
:1000B800E9C1E6FF1BEC05F0020E3924D96E010EEA
:1000C8003A20DA6E000EDF6E2E0EE66E000EE66E39
:1000D800E8C1E6FFE9C1E6FF1BEC05F02A0E39246A
:1000E800D96E010E3A20DA6EE8CFDFFF2E0EE66EEB
:1000F800000EE66EE8C1E6FFE9C1E6FF1BEC05F07D
:10010800290E3924D96E010E3A20DA6EE0CFDFFFCE
:100118002E0EE66E000EE66EE8C1E6FFE9C1E6FFC8
:100128001BEC05F02B0E3924D96E010E3A20DA6E3D
:10013800D8CFDFFF2E0EE66E000EE66EE8C1E6FFB2
:10014800E9C1E6FF1BEC05F0270E3924D96E010E34
:100158003A20DA6E000EDE6E000EDD6E2E0EE66EB2
:10016800000EE66EE8C1E6FFE9C1E6FF1BEC05F00C
:10017800000E596E010E5A6E070E5926000E5A22AD
:10018800395059263A505A2237505924D96E385086
:100198005A20DA6EFDCFDFFF374A382A0600FC50B6
:1001A800D8A4D9EF00F0DBEF00F0B2EF00F0EFEFEA
:1001B80000F02E0EE66E000EE66EE8C1E6FFE9C11D
:1001C800E6FF1BEC05F0020E3924D96E010E3A2029
:1001D800DA6E000EDF6EF6EC05F039C0E8F13AC0D1
:1001E800E9F12E0EE66E000EE66EE8C1E6FFE9C103
:1001F800E6FF1BEC05F0270E3924D96E010E3A20D4
:10020800DA6EDE50DE10D8A40CEF01F00EEF01F02C
:1002180029EF01F02E0EE66E000EE66EE8C1E6FF4D
:10022800E9C1E6FF1BEC05F0050E3924D96E010E75
:100238003A20DA6EDECF59F0DDCF5AF059C0FDFF13
:100248005AC0FEFFFF6ABCEF01F02E0EE66E000EEC
:10025800E66EE8C1E6FFE9C1E6FF1BEC05F0020E19
:100268003924D96E010E3A20DA6E010EDF6E2E0E99
:10027800E66E000EE66EE8C1E6FFE9C1E6FF1BEC9C
:1002880005F02A0E3924D96E010E3A20DA6EDF50B5
:10029800596E59502E0EE66E000EE66EE8C1E6FF66
:1002A800E9C1E6FF1BEC05F0290E3924D96E010ED1
:1002B8003A20DA6EDF50E06E2E0EE66E000EE66E25
:1002C800E8C1E6FFE9C1E6FF1BEC05F02B0E392477
:1002D800D96E010E3A20DA6EDF50D86E2E0EE66E19
:1002E800000EE66EE8C1E6FFE9C1E6FF1BEC05F08B
:1002F800270E3924D96E010E3A20DA6EDECF59F076
:10030800DDCF5AF0FF0E5924376EFF0E5A20386E93
:10031800FC6AB3EF01F005002E0EE66E000EE66EE5
:10032800E8C1E6FFE9C1E6FF1BEC05F0000E596ED7
:10033800010E5A6E070E5926000E5A2239505926B8
:100348003A505A2237505924D96E38505A20DA6E0A
:10035800DF50FD6EFE6AFF6A3706D8A038063750B0
:100368003810D8A4BAEF01F0BCEF01F08FEF01F01C
:10037800F28E000E686E0C0E676E95EC02F066C089
:1003880044F065C043F064C042F063C041F062C00D
:100398003AF061C039F060C0F4FF5FC0F3FF5EC09F
:1003A800DAFF5DC0D9FF5CC0E2FF5BC0E1FF11006E
:1003B800080EE126000EE22235503610D8A4E7EFE9
:1003C80001F0E9EF01F074EF02F020EE01F0060E03
:1003D800396EFA0EDECFE3FFE828392EFBD7F80E88
:1003E800E36AF90EE36AF80EE3CF43F0F90EE3CFC0
:1003F80044F0060E4302F3CF41F0F4CF42F044023A
:10040800F3504226070E4124D96E000E4220DA6EC0
:10041800F80EE3CF43F0F90EE3CF44F0060E4302A3
:10042800F3CF41F0F4CF42F04402F3504226010EDC
:100438004124E96E000E4220EA6E050EDBCFEBFF89
:10044800E806FCE2F80EE350010F396EF80E39C0E9
:10045800E3FF396AF90EE3503920396EF90E39C0D5
:10046800E3FFF90EE3BE46EF02F0F90EE3500CE1AC
:10047800F80EE3CF39F0020E395ED8A046EF02F04D
:1004880048EF02F0F7EF01F01306D8A01406FA0EB1
:10049800E124D96EFF0EE220DA6E00EE15F0050EAB
:1004A800DBCFEBFFE806FCE2000E366E010E356E80
:1004B800FE0EE124D96EFF0EE220DA6E000EDE6E2B
:1004C800000EDD6EFA0EE124D96EFF0EE220DA6E20
:1004D800060EDECFE6FFE82C6DEF02F0EDEC05F03E
:1004E80035043610D8A47BEF02F07DEF02F090EFD0
:1004F80002F019501A10D8A484EF02F086EF02F027
:1005080090EF02F020EE15F0060EDECFE6FFE82CA5
:1005180089EF02F0EDEC05F0F80EE126FF0EE2227D
:100528001200E652E652E652E652FE0EE36AFF0E6B
:10053800E36AFC0EE36AFD0EE36A27EF03F0FC0EA4
:10054800E3CF43F0FD0EE3CF44F02E0E4302F3CF8A
:1005580041F0F4CF42F04402F3504226020E412407
:10056800D96E010E4220DA6E030EDE18D8A4BFEF52
:1005780002F0C1EF02F018EF03F0FC0EE3CF43F0F6
:10058800FD0EE3CF44F02E0E4302F3CF41F0F4CF3B
:1005980042F04402F35042262C0E4124D96E010E3B
:1005A8004220DA6EDE06000EDD5AFC0EE3CF43F081
:1005B800FD0EE3CF44F02E0E4302F3CF41F0F4CF0B
:1005C80042F04402F35042262C0E4124D96E010E0B
:1005D8004220DA6EDE50DE10D8A4F5EF02F0F7EF15
:1005E80002F018EF03F0FC0EE3CF43F0FD0EE3CF6B
:1005F80044F02E0E4302F3CF41F0F4CF42F0440210
:10060800F3504226020E4124D96E010E4220DA6EC2
:10061800000EDF6E010E436E000E446EFE0E43C0E8
:10062800E3FFFF0E44C0E3FFFC0EE350010F396EF9
:10063800FC0E39C0E3FF396AFD0EE3503920396EEC
:10064800FD0E39C0E3FFFC0EE3CF39F00101E6519E
:10065800395CFD0EE3CF39F0E7513958D8A037EFB0
:1006680003F039EF03F0A3EF02F0FE0EE3CF39F009
:10067800FF0EE3CF3AF0E552E552E552E55212009B
:100688000C0EE126000EE22283A04DEF03F04FEF9F
:1006980003F096EF03F0145007E1030E135CD8B093
:1006A80058EF03F05AEF03F096EF03F0FA0EE36AFF
:1006B800FB0EE36AFC0EE124D96EFF0EE220DA6E2F
:1006C800010EDE6E000EDD6EFE0EE124D96EFF0E09
:1006D800E220DA6E000EDE6E000EDD6EFA0EE12408
:1006E800D96EFF0EE220DA6E00EE13F0EECF43F083
:1006F800EDCF44F0060E4302F3CF41F0F4CF42F0C1
:100708004402F3504226010E4124E96E000E4220B5
:10071800EA6E050EDBCFEBFFE806FCE2134A142A6B
:10072800E8EF03F083A29BEF03F09DEF03F0E8EFFF
:1007380003F0145007E1030E135CD8B0A6EF03F0E2
:10074800A8EF03F0E8EF03F0010E436E000E446ECD
:10075800F40E43C0E3FFF50E44C0E3FFF60EE124B8
:10076800D96EFF0EE220DA6E020EDE6E000EDD6E2E
:10077800F80EE124D96EFF0EE220DA6E000EDE6E6E
:10078800000EDD6EF40EE124D96EFF0EE220DA6E63
:1007980000EE13F0EECF43F0EDCF44F0060E430227
:1007A800F3CF41F0F4CF42F04402F3504226010E59
:1007B8004124E96E000E4220EA6E050EDBCFEBFF06
:1007C800E806FCE292EF03F0F40EE126FF0EE222C7
:1007D8001200E652FB0EE3CF39F0FC0EE35039105D
:1007E800D8B4F9EF03F0FBEF03F056EF04F0FF0E77
:1007F800E36AE32A11EF04F0FB0EE350D890E834E3
:10080800396EFB0E39C0E3FFFC0EE350E834396E55
:10081800FC0E39C0E3FFFF0EE32AFC0EE3AE17EF30
:1008280004F019EF04F000EF04F0FB0EE3CF43F0FF
:10083800FC0EE3CF44F0FD0EE3CF41F0FE0EE3CF14
:1008480042F04350415C44504258D8A02EEF04F087
:1008580030EF04F042EF04F0FD0EE350396EFB0E6A
:10086800E350395EFD0E39C0E3FFFE0EE350396EEA
:10087800FC0EE350395AFE0E39C0E3FFD890FC0E47
:10088800E332FB0EE332FF0EE350396E010E395EA0
:10089800FF0E39C0E3FFD8A454EF04F056EF04F07C
:1008A80019EF04F0FD0EE3CF39F0FE0EE3CF3AF076
:1008B800FB0EE126FF0EE22212002E0EE126000EAC
:1008C800E222010E0101E625436E000EE721446E87
:1008D800D20E43C0E3FFD30E44C0E3FFE150D00F74
:1008E800D96EE250DA6EFF0EDA22D50EE124E96EF7
:1008F800FF0EE220EA6EDECFEEFFDDCFEDFFD40E75
:10090800E124D96EFF0EE220DA6E000EDF6EE150B0
:10091800CE0FD96EE250DA6EFF0EDA22D70EE1243E
:10092800E96EFF0EE220EA6EDECFEEFFDDCFEDFFCF
:10093800F90EE124D96EFF0EE220DA6E000EDE6EAB
:10094800000EDD6ED20EE124D96EFF0EE220DA6EC3
:1009580001EEE6F0EECF43F0EDCF44F02E0E430269
:10096800F3CF41F0F4CF42F04402F35042262E0E6A
:100978004124E96E010E4220EA6E2D0EDBCFEBFF1B
:10098800E806FCE2E64BE72BCE0EE126FF0EE2225C
:100998001200E652E652FE0EE8C1E3FFFF0EE9C17F
:1009A800E3FF010E0101E625436E000EE721446EC8
:1009B80043C0E6FF44C0E6FFFC0EE350010F436E60
:1009C800FD0EE3CF44F0000E442243C0E6FF44C0CE
:1009D800E6FFEDEC03F0FE0E39C0E3FFFF0E3AC070
:1009E800E3FFFE0EE3CF43F0FF0EE3CF44F02E0EFD
:1009F8004302F3CF41F0F4CF42F04402F3504226D1
:100A0800020E4124D96E010E4220DA6EDF50D8A4BE
:100A180010EF05F012EF05F0D5EF04F0FE0EE3CF6E
:100A280039F0FF0EE3CF3AF0E552E5521200E652F4
:100A3800E652FA0EE3CF44F0FC0EE3504402FE0EF9
:100A4800F3CFE3FFFF0EF4CFE3FFFB0EE124D96EF3
:100A5800FF0EE220DA6EDF50446EFC0EE3504402D3
:100A6800F3CFF4FFF36AE150FE0FD96EE250DA6E6D
:100A7800FF0EDA22F350DE26F450DD22FA0EE3CF21
:100A880044F0FD0EE124D96EFF0EE220DA6EDF504D
:100A98004402F3CFF4FFF36AE150FE0FD96EE2503F
:100AA800DA6EFF0EDA22F350DE26F450DD22FE0E57
:100AB800E3CF39F0FF0EE3CF3AF0FA0EE126FF0E4E
:100AC800E2221200B1EC05F0880EE66E060EE66E24
:100AD800030EE66E000EE66E61EC04F0B80EE66EEC
:100AE800030EE66E020EE66E000EE66E61EC04F092
:100AF800000EE66E000EE66E020EE66E000EE66E64
:100B080061EC04F0F3EC05F088EF05F006EF00F077
:100B1800F20EF66E0B0EF76E000EF86E0900F5CFAA
:100B280067F00900F5CF68F001EEEAF022EE00F078
:100B3800EE6ADD50D950FCE1DA50FAE101EE00F03E
:100B4800EA0EEE6AE806FDE100EE01F0380EEE6A04
:100B5800E806FDE1000166EF05F00101E86BE96BCD
:100B6800E66BE76B136A146A336A346ADFEC05F0E4
:100B7800920EE66E0B0EE66E000EE66E000EE66E48
:100B880061EC04F0E7EC05F0120083B6CEEF05F057
:100B9800D1EF05F0010ED2EF05F0000EFF0A446E0A
:100BA80044464446444683504418F70B4418836E21
:100BB800C9EF05F01200F28AF28CD59AD596070E85
:100BC800D512D66A12009580958295949596959837
:100BD80012008384FA0EE126FF0EE2221200F28E42
:0C0BE800D58E1200CDEC04F012000C00C1
:020000040020DA
:08000000FFFFFFFFFFFFFFFF00
:020000040030CA
:0E000000FF071F1EFF8385FF0FC00FE00F409C
:00000001FF
