:020000040000FA
:0400000006EF00F017
:100008000AED00F013EEEAF083EF06F00600E1CF08
:1000180023F0E2CF24F0D9CF25F0DACF26F0F3CFC2
:1000280027F0F4CF28F001C029F002C02AF009C057
:100038002BF00AC02CF00BC02DF00CC02EF014EEE3
:100048009CF0F29EF2A42BEF00F02DEF00F0C3EF2E
:1000580001F0F294D66A3B06D8A03C063B503C100F
:10006800D8A439EF00F03BEF00F0C1EF01F02E0EFD
:10007800E66E000EE66EE8C1E6FFE9C1E6FFA7EC12
:1000880005F0270E0124D96E010E0220DA6EDE502B
:10009800DE10D8B452EF00F054EF00F0DDEF00F0BE
:1000A800396A3A6A2E0EE66E000EE66EE8C1E6FF81
:1000B800E9C1E6FFA7EC05F0020E0124D96E010E96
:1000C8000220DA6E000EDF6E2E0EE66E000EE66E71
:1000D800E8C1E6FFE9C1E6FFA7EC05F02A0E012416
:1000E800D96E010E0220DA6EE8CFDFFF2E0EE66E23
:1000F800000EE66EE8C1E6FFE9C1E6FFA7EC05F0F1
:10010800290E0124D96E010E0220DA6EE0CFDFFF3E
:100118002E0EE66E000EE66EE8C1E6FFE9C1E6FFC8
:10012800A7EC05F02B0E0124D96E010E0220DA6E21
:10013800D8CFDFFF2E0EE66E000EE66EE8C1E6FFB2
:10014800E9C1E6FFA7EC05F0270E0124D96E010EE0
:100158000220DA6E000EDE6E000EDD6E2E0EE66EEA
:10016800000EE66EE8C1E6FFE9C1E6FFA7EC05F080
:10017800000E216E010E226E070E2126000E22228D
:10018800015021260250222239502124D96E3A509A
:100198002220DA6EFDCFDFFF394A3A2A0600FC50EA
:1001A800D8A4D9EF00F0DBEF00F0B2EF00F0EFEFEA
:1001B80000F02E0EE66E000EE66EE8C1E6FFE9C11D
:1001C800E6FFA7EC05F0020E0124D96E010E02200D
:1001D800DA6E000EDF6E11EC07F001C0E8F102C024
:1001E800E9F12E0EE66E000EE66EE8C1E6FFE9C103
:1001F800E6FFA7EC05F0270E0124D96E010E0220B8
:10020800DA6EDE50DE10D8A40CEF01F00EEF01F02C
:1002180029EF01F02E0EE66E000EE66EE8C1E6FF4D
:10022800E9C1E6FFA7EC05F0050E0124D96E010E21
:100238000220DA6EDECF21F0DDCF22F021C0FDFFF3
:1002480022C0FEFFFF6ABCEF01F02E0EE66E000E24
:10025800E66EE8C1E6FFE9C1E6FFA7EC05F0020E8D
:100268000124D96E010E0220DA6E010EDF6E2E0E09
:10027800E66E000EE66EE8C1E6FFE9C1E6FFA7EC10
:1002880005F02A0E0124D96E010E0220DA6EDF5025
:10029800216E21502E0EE66E000EE66EE8C1E6FFD6
:1002A800E9C1E6FFA7EC05F0290E0124D96E010E7D
:1002B8000220DA6EDF50E06E2E0EE66E000EE66E5D
:1002C800E8C1E6FFE9C1E6FFA7EC05F02B0E012423
:1002D800D96E010E0220DA6EDF50D86E2E0EE66E51
:1002E800000EE66EE8C1E6FFE9C1E6FFA7EC05F0FF
:1002F800270E0124D96E010E0220DA6EDECF21F01E
:10030800DDCF22F0FF0E2124396EFF0E22203A6E37
:10031800FC6AB3EF01F005002E0EE66E000EE66EE5
:10032800E8C1E6FFE9C1E6FFA7EC05F0000E216E83
:10033800010E226E070E2126000E222201502126D0
:100348000250222239502124D96E3A502220DA6EE6
:10035800DF50FD6EFE6AFF6A3906D8A03A063950AA
:100368003A10D8A4BAEF01F0BCEF01F08FEF01F01A
:10037800F28E000E3C6E0C0E3B6E71EC03F02EC03C
:100388000CF02DC00BF02CC00AF02BC009F02AC0CD
:1003980002F029C001F028C0F4FF27C0F3FF26C0EF
:1003A800DAFF25C0D9FF24C0E2FF23C0E1FF110016
:1003B8000C0EE126000EE22283B0E5EF01F0E7EF34
:1003C80001F0F0EF01F083B2ECEF01F0EEEF01F095
:1003D800F0EF01F0376A386A83A0F5EF01F0F7EF24
:1003E80001F04CEF02F00001B15107E1080EB05DD9
:1003F800D8B001EF02F003EF02F04CEF02F03750F3
:100408003810D8A40AEF02F00CEF02F04CEF02F01B
:10041800FA0EE36AFB0EE36AFC0EE124D96EFF0EC6
:10042800E220DA6E010EDE6E000EDD6EFE0EE124B5
:10043800D96EFF0EE220DA6E000EDE6E000EDD6E63
:10044800FA0EE124D96EFF0EE220DA6E00EEB0F06B
:10045800EECF0BF0EDCF0CF0060E0B02F3CF09F048
:10046800F4CF0AF00C02F3500A26800E0924E96E34
:10047800000E0A20EA6E050EDBCFEBFFE806FCE271
:10048800B04BB12B000E386E010E376EE0EF01F065
:1004980083A251EF02F053EF02F0E0EF01F0000108
:1004A800B15107E1080EB05DD8B05DEF02F05FEF23
:1004B80002F0E0EF01F037503810D8A466EF02F0F0
:1004C80068EF02F0E0EF01F0010E0B6E000E0C6E0B
:1004D800F40E0BC0E3FFF50E0CC0E3FFF60EE124AB
:1004E800D96EFF0EE220DA6E020EDE6E000EDD6EB1
:1004F800F80EE124D96EFF0EE220DA6E000EDE6EF1
:10050800000EDD6EF40EE124D96EFF0EE220DA6EE5
:1005180000EEB0F0EECF0BF0EDCF0CF0060E0B02B4
:10052800F3CF09F0F4CF0AF00C02F3500A26800E3C
:100538000924E96E000E0A20EA6E050EDBCFEBFFF8
:10054800E806FCE244EF02F0F40EE126FF0EE22298
:100558001200080EE126000EE22235503610D8A40B
:10056800B8EF02F0BAEF02F055EF03F00001B05116
:10057800B111D8B4C2EF02F0C4EF02F055EF03F0A6
:1005880020EE80F0060E016EFA0EDECFE3FFE828BB
:10059800012EFBD7F80EE36AF90EE36AF80EE3CFF3
:1005A8000BF0F90EE3CF0CF0060E0B02F3CF09F0B7
:1005B800F4CF0AF00C02F3500A26860E0924D96EED
:1005C800000E0A20DA6EF80EE3CF0BF0F90EE3CF37
:1005D8000CF0060E0B02F3CF09F0F4CF0AF00C0270
:1005E800F3500A26800E0924E96E000E0A20EA6EEE
:1005F800050EDBCFEBFFE806FCE2F80EE350010F37
:10060800016EF80E01C0E3FF016AF90EE350012004
:10061800016EF90E01C0E3FFF90EE3BE21EF03F00E
:10062800F90EE3500CE1F80EE3CF01F0070E015E7E
:10063800D8A021EF03F023EF03F0D2EF02F000017E
:10064800B007D8A0B107FA0EE124D96EFF0EE22058
:10065800DA6E00EEB2F0050EDBCFEBFFE806FCE247
:10066800000E366E010E356E83B83DEF03F040EF95
:1006780003F0010E41EF03F0000EFF0A0C6E0C3A76
:1006880083500C18EF0B0C18836EFE0EE124D96E04
:10069800FF0EE220DA6E000EDE6E000EDD6E55EC07
:1006A80005F035043610D8A45CEF03F05EEF03F0D4
:1006B800B1EF02F00001B651B711D8A466EF03F00C
:1006C80068EF03F0B1EF02F055EC05F0B1EF02F07E
:1006D800F80EE126FF0EE2221200E652E652E6523A
:1006E800E652FE0EE36AFF0EE36AFC0EE36AFD0EB5
:1006F800E36A03EF04F0FC0EE3CF0BF0FD0EE3CF4B
:100708000CF02E0E0B02F3CF09F0F4CF0AF00C0216
:10071800F3500A26020E0924D96E010E0A20DA6E59
:10072800030EDE18D8A49BEF03F09DEF03F0F4EF5F
:1007380003F0FC0EE3CF0BF0FD0EE3CF0CF02E0E12
:100748000B02F3CF09F0F4CF0AF00C02F3500A269B
:100758002C0E0924D96E010E0A20DA6EDE06000E70
:10076800DD5AFC0EE3CF0BF0FD0EE3CF0CF02E0E9E
:100778000B02F3CF09F0F4CF0AF00C02F3500A266B
:100788002C0E0924D96E010E0A20DA6EDE50DE1016
:10079800D8A4D1EF03F0D3EF03F0F4EF03F0FC0E8D
:1007A800E3CF0BF0FD0EE3CF0CF02E0E0B02F3CFD0
:1007B80009F0F4CF0AF00C02F3500A26020E0924BD
:1007C800D96E010E0A20DA6E000EDF6E010E0B6E76
:1007D800000E0C6EFE0E0BC0E3FFFF0E0CC0E3FF15
:1007E800FC0EE350010F016EFC0E01C0E3FF016A2D
:1007F800FD0EE3500120016EFD0E01C0E3FFFC0E6B
:10080800E3CF01F00101E651015CFD0EE3CF01F0F9
:10081800E7510158D8A013EF04F015EF04F07FEF6B
:1008280003F0FE0EE3CF01F0FF0EE3CF02F0E55236
:10083800E552E552E5521200E652FB0EE3CF01F015
:10084800FC0EE3500110D8B42CEF04F02EEF04F0A6
:1008580089EF04F0FF0EE36AE32A44EF04F0FB0E8D
:10086800E350D890E834016EFB0E01C0E3FFFC0EA4
:10087800E350E834016EFC0E01C0E3FFFF0EE32AEB
:10088800FC0EE3AE4AEF04F04CEF04F033EF04F053
:10089800FB0EE3CF0BF0FC0EE3CF0CF0FD0EE3CF25
:1008A80009F0FE0EE3CF0AF00B50095C0C500A5811
:1008B800D8A061EF04F063EF04F075EF04F0FD0ECB
:1008C800E350016EFB0EE350015EFD0E01C0E3FF35
:1008D800FE0EE350016EFC0EE350015AFE0E01C0FD
:1008E800E3FFD890FC0EE332FB0EE332FF0EE35039
:1008F800016E010E015EFF0E01C0E3FFD8A487EF71
:1009080004F089EF04F04CEF04F0FD0EE3CF01F0A2
:10091800FE0EE3CF02F0FB0EE126FF0EE2221200EC
:100928002E0EE126000EE222010E0101E6250B6ED5
:10093800000EE7210C6ED20E0BC0E3FFD30E0CC0E5
:10094800E3FFE150D00FD96EE250DA6EFF0EDA22E3
:10095800D50EE124E96EFF0EE220EA6EDECFEEFF4F
:10096800DDCFEDFFD40EE124D96EFF0EE220DA6E62
:10097800000EDF6EE150CE0FD96EE250DA6EFF0E38
:10098800DA22D70EE124E96EFF0EE220EA6EDECF0E
:10099800EEFFDDCFEDFFF90EE124D96EFF0EE22068
:1009A800DA6E000EDE6E000EDD6ED20EE124D96E18
:1009B800FF0EE220DA6E01EEE6F0EECF0BF0EDCF9F
:1009C8000CF02E0E0B02F3CF09F0F4CF0AF00C0254
:1009D800F3500A26000E0924E96E010E0A20EA6E79
:1009E8002D0EDBCFEBFFE806FCE2E64BE72BCE0E45
:1009F800E126FF0EE222120035043610D8A407EFD4
:100A080005F009EF05F035EF05F00001B605B7115F
:100A1800D8A411EF05F013EF05F035EF05F03150CC
:100A28003210D8A41AEF05F01CEF05F035EF05F0E9
:100A380020EEB2F000EEB8F0050EDBCFEBFFE806D3
:100A4800FCE2356A366A000E326E010E316E20EE17
:100A5800B8F0060EDECFE6FFE82C2EEF05F0F2EC3C
:100A680005F00001B605B711D8A43DEF05F03FEF3A
:100A780005F000EF05F031043210D8A446EF05F078
:100A880048EF05F000EF05F020EEB8F0060EDECFD7
:100A9800E6FFE82C4BEF05F0F2EC05F000EF05F06F
:100AA8001200100E335C270E3458D8B05EEF05F0F4
:100AB80060EF05F065EF05F08288828A8384334A07
:100AC800342A100E335C270E3458D8A06EEF05F088
:100AD80070EF05F089EF05F00001B405B511D8A451
:100AE80078EF05F07AEF05F089EF05F08298829AA1
:100AF8008394000EB76F010EB66F336A346A000E26
:100B0800366E010E356E316A326A100E335C270E6E
:100B18003458D8A092EF05F094EF05F0A6EF05F051
:100B28000001B55109E1020EB45DD8A09EEF05F0B1
:100B3800A0EF05F0A6EF05F08394B407D8A0B50799
:100B4800336A346A1200E652E652FA0EE3CF0CF02A
:100B5800FC0EE3500C02FE0EF3CFE3FFFF0EF4CFC2
:100B6800E3FFFB0EE124D96EFF0EE220DA6EDF50C0
:100B78000C6EFC0EE3500C02F3CFF4FFF36AE15065
:100B8800FE0FD96EE250DA6EFF0EDA22F350DE263F
:100B9800F450DD22FA0EE3CF0CF0FD0EE124D96EFD
:100BA800FF0EE220DA6EDF500C02F3CFF4FFF36A97
:100BB800E150FE0FD96EE250DA6EFF0EDA22F350E2
:100BC800DE26F450DD22FE0EE3CF01F0FF0EE3CF68
:100BD80002F0FA0EE126FF0EE2221200100E2F5C40
:100BE800270E3058D8B0FBEF05F0FDEF05F000EF09
:100BF80006F083862F4A302A100E2F5C270E3058B5
:100C0800D8A009EF06F00BEF06F037EF06F0839651
:100C1800316A326A2F6A306A000E0001B76F020E1D
:100C2800B66FFA0EE124D96EFF0EE220DA6E00EEFE
:100C3800EEF0EECF0BF0EDCF0CF0060E0B02F3CF7B
:100C480009F0F4CF0AF00C02F3500A26BE0E09246C
:100C5800E96E000E0A20EA6E050EDBCFEBFFE80610
:100C6800FCE2EE4BEF2BFA0EE126FF0EE222120019
:100C7800E652E652FE0EE8C1E3FFFF0EE9C1E3FFCC
:100C8800E6C1E6FFE7C1E6FFFC0EE350010F0B6E7D
:100C9800FD0EE3CF0CF0000E0C220BC0E6FF0CC0DB
:100CA800E6FF20EC04F0FE0E01C0E3FFFF0E02C0D9
:100CB800E3FFFE0EE3CF0BF0FF0EE3CF0CF02E0E9A
:100CC8000B02F3CF09F0F4CF0AF00C02F3500A2616
:100CD800020E0924D96E010E0A20DA6EDF50D8A45C
:100CE80078EF06F07AEF06F044EF06F0FE0EE3CF59
:100CF80001F0FF0EE3CF02F0E552E5521200280E94
:100D0800F66E0E0EF76E000EF86E0900F5CF3BF08A
:100D18000900F5CF3CF001EEEAF022EE00F0EE6AB1
:100D2800DD50D950FCE1DA50FAE101EE00F0EA0EAC
:100D3800EE6AE806FDE100EE80F0700EEE6AE80665
:100D4800FDE100EE2FF00C0EEE6AE806FDE1000171
:100D5800AEEF06F0D4EC06F0B80EE66E030EE66EC3
:100D6800030EE66E000EE66E94EC04F0000EE66EDE
:100D78000A0EE66E020EE66E000EE66E94EC04F0C5
:100D88005A0EE66E050EE66E020EE66E000EE66E72
:100D980094EC04F00BEC07F0D0EF06F006EF00F04F
:100DA8000101E86BE96BE66BE76B0001B06BB16BB7
:100DB800EE6BEF6B336A346A2F6A306A356A366ACB
:100DC800316A326A03EC07F01C0EE66E0E0EE66E10
:100DD800000EE66E000EE66E94EC04F0F5EC06F0FC
:100DE80012009580958295949596959894909492F2
:100DF800949494969498949A949C949E1200F28A4F
:100E0800F28CD59AD596070ED512D66A1200F28EB4
:100E1800D58E12000EEF07F012003CEC06F012001F
:020E28000C00BC
:020000040020DA
:08000000FFFFFFFFFFFFFFFF00
:020000040030CA
:0E000000FF071F1EFF8385FF0FC00FE00F409C
:00000001FF
