:020000040000FA
:0400000006EF00F017
:100008000AED00F013EEEAF095EF05F00600E1CFF7
:1000180057F0E2CF58F0D9CF59F0DACF5AF0F3CFF2
:100028005BF0F4CF5CF035C05DF036C05EF03DC0EB
:100038005FF03EC060F03FC061F040C062F014EE77
:100048009CF0F29EF2A42BEF00F02DEF00F0C3EF2E
:1000580001F0F294D66A6306D8A06406635064106F
:10006800D8A439EF00F03BEF00F0C1EF01F02E0EFD
:10007800E66E000EE66EE8C1E6FFE9C1E6FF20EC99
:1000880005F0270E3524D96E010E3620DA6EDE50C3
:10009800DE10D8B452EF00F054EF00F0DDEF00F0BE
:1000A800336A346A2E0EE66E000EE66EE8C1E6FF8D
:1000B800E9C1E6FF20EC05F0020E3524D96E010EE9
:1000C8003620DA6E000EDF6E2E0EE66E000EE66E3D
:1000D800E8C1E6FFE9C1E6FF20EC05F02A0E352469
:1000E800D96E010E3620DA6EE8CFDFFF2E0EE66EEF
:1000F800000EE66EE8C1E6FFE9C1E6FF20EC05F078
:10010800290E3524D96E010E3620DA6EE0CFDFFFD6
:100118002E0EE66E000EE66EE8C1E6FFE9C1E6FFC8
:1001280020EC05F02B0E3524D96E010E3620DA6E40
:10013800D8CFDFFF2E0EE66E000EE66EE8C1E6FFB2
:10014800E9C1E6FF20EC05F0270E3524D96E010E33
:100158003620DA6E000EDE6E000EDD6E2E0EE66EB6
:10016800000EE66EE8C1E6FFE9C1E6FF20EC05F007
:10017800000E556E010E566E070E5526000E5622BD
:10018800355055263650562233505524D96E3450A2
:100198005620DA6EFDCFDFFF334A342A0600FC50C2
:1001A800D8A4D9EF00F0DBEF00F0B2EF00F0EFEFEA
:1001B80000F02E0EE66E000EE66EE8C1E6FFE9C11D
:1001C800E6FF20EC05F0020E3524D96E010E36202C
:1001D800DA6E000EDF6E13EC06F035C0E8F136C0BB
:1001E800E9F12E0EE66E000EE66EE8C1E6FFE9C103
:1001F800E6FF20EC05F0270E3524D96E010E3620D7
:10020800DA6EDE50DE10D8A40CEF01F00EEF01F02C
:1002180029EF01F02E0EE66E000EE66EE8C1E6FF4D
:10022800E9C1E6FF20EC05F0050E3524D96E010E74
:100238003620DA6EDECF55F0DDCF56F055C0FDFF23
:1002480056C0FEFFFF6ABCEF01F02E0EE66E000EF0
:10025800E66EE8C1E6FFE9C1E6FF20EC05F0020E14
:100268003524D96E010E3620DA6E010EDF6E2E0EA1
:10027800E66E000EE66EE8C1E6FFE9C1E6FF20EC97
:1002880005F02A0E3524D96E010E3620DA6EDF50BD
:10029800556E55502E0EE66E000EE66EE8C1E6FF6E
:1002A800E9C1E6FF20EC05F0290E3524D96E010ED0
:1002B8003620DA6EDF50E06E2E0EE66E000EE66E29
:1002C800E8C1E6FFE9C1E6FF20EC05F02B0E352476
:1002D800D96E010E3620DA6EDF50D86E2E0EE66E1D
:1002E800000EE66EE8C1E6FFE9C1E6FF20EC05F086
:1002F800270E3524D96E010E3620DA6EDECF55F082
:10030800DDCF56F0FF0E5524336EFF0E5620346EA7
:10031800FC6AB3EF01F005002E0EE66E000EE66EE5
:10032800E8C1E6FFE9C1E6FF20EC05F0000E556ED6
:10033800010E566E070E5526000E562235505526CC
:100348003650562233505524D96E34505620DA6E22
:10035800DF50FD6EFE6AFF6A3306D8A034063350BC
:100368003410D8A4BAEF01F0BCEF01F08FEF01F020
:10037800F28E000E646E0C0E636E97EC02F062C093
:1003880040F061C03FF060C03EF05FC03DF05EC02D
:1003980036F05DC035F05CC0F4FF5BC0F3FF5AC0B7
:1003A800DAFF59C0D9FF58C0E2FF57C0E1FF11007A
:1003B800080EE126000EE2222F503010D8A4E7EFF5
:1003C80001F0E9EF01F074EF02F020EE01F0060E03
:1003D800356EFA0EDECFE3FFE828352EFBD7F80E90
:1003E800E36AF90EE36AF80EE3CF3FF0F90EE3CFC4
:1003F80040F0060E3F02F3CF3DF0F4CF3EF040024E
:10040800F3503E26070E3D24D96E000E3E20DA6ECC
:10041800F80EE3CF3FF0F90EE3CF40F0060E3F02AF
:10042800F3CF3DF0F4CF3EF04002F3503E26010EEC
:100438003D24E96E000E3E20EA6E050EDBCFEBFF91
:10044800E806FCE2F80EE350010F356EF80E35C0F1
:10045800E3FF356AF90EE3503520356EF90E35C0E5
:10046800E3FFF90EE3BE46EF02F0F90EE3500CE1AC
:10047800F80EE3CF35F0020E355ED8A046EF02F055
:1004880048EF02F0F7EF01F01306D8A01406FA0EB1
:10049800E124D96EFF0EE220DA6E00EE15F0050EAB
:1004A800DBCFEBFFE806FCE2000E306E010E2F6E8C
:1004B800FE0EE124D96EFF0EE220DA6E000EDE6E2B
:1004C800000EDD6EFA0EE124D96EFF0EE220DA6E20
:1004D800060EDECFE6FFE82C6DEF02F0BAEC05F071
:1004E8002F043010D8A47BEF02F07DEF02F092EFDA
:1004F80002F019501A10D8A484EF02F086EF02F027
:1005080092EF02F020EE15F0060EDECFE6FFE82CA3
:1005180089EF02F0BAEC05F092EF02F0F80EE1264E
:10052800FF0EE2221200E652E652E652E652FE0EB4
:10053800E36AFF0EE36AFC0EE36AFD0EE36A29EF45
:1005480003F0FC0EE3CF3FF0FD0EE3CF40F02E0E9C
:100558003F02F3CF3DF0F4CF3EF04002F3503E2689
:10056800020E3D24D96E010E3E20DA6E030EDE180F
:10057800D8A4C1EF02F0C3EF02F01AEF03F0FC0EAB
:10058800E3CF3FF0FD0EE3CF40F02E0E3F02F3CF56
:100598003DF0F4CF3EF04002F3503E262C0E3D24B1
:1005A800D96E010E3E20DA6EDE06000EDD5AFC0E14
:1005B800E3CF3FF0FD0EE3CF40F02E0E3F02F3CF26
:1005C8003DF0F4CF3EF04002F3503E262C0E3D2481
:1005D800D96E010E3E20DA6EDE50DE10D8A4F7EF99
:1005E80002F0F9EF02F01AEF03F0FC0EE3CF3FF050
:1005F800FD0EE3CF40F02E0E3F02F3CF3DF0F4CFD7
:100608003EF04002F3503E26020E3D24D96E010E04
:100618003E20DA6E000EDF6E010E3F6E000E406E59
:10062800FE0E3FC0E3FFFF0E40C0E3FFFC0EE350A9
:10063800010F356EFC0E35C0E3FF356AFD0EE35041
:100648003520356EFD0E35C0E3FFFC0EE3CF35F0E7
:100658000101E651355CFD0EE3CF35F0E751355821
:10066800D8A039EF03F03BEF03F0A5EF02F0FE0E40
:10067800E3CF35F0FF0EE3CF36F0E552E552E55211
:10068800E55212000C0EE126000EE22283A04FEF85
:1006980003F051EF03F097EF03F0145007E1030E56
:1006A800135CD8B05AEF03F05CEF03F097EF03F058
:1006B800FA0EE36AFB0EE36AFC0EE124D96EFF0E24
:1006C800E220DA6E010EDE6E000EDD6EFE0EE12413
:1006D800D96EFF0EE220DA6E000EDE6E000EDD6EC1
:1006E8008384FA0EE124D96EFF0EE220DA6E00EE62
:1006F80013F0EECF3FF0EDCF40F0060E3F02F3CF00
:100708003DF0F4CF3EF04002F3503E26010E3D246A
:10071800E96E000E3E20EA6E050EDBCFEBFFE80621
:10072800FCE2EDEF03F083A29CEF03F09EEF03F0F1
:10073800ECEF03F0145007E1030E135CD8B0A7EFF9
:1007480003F0A9EF03F0ECEF03F0010E3F6E000E8B
:10075800406EF40E3FC0E3FFF50E40C0E3FFF60E17
:10076800E124D96EFF0EE220DA6E020EDE6E000E74
:10077800DD6EF80EE124D96EFF0EE220DA6E000E6F
:10078800DE6E000EDD6E8384F40EE124D96EFF0E5A
:10079800E220DA6E00EE13F0EECF3FF0EDCF40F03E
:1007A800060E3F02F3CF3DF0F4CF3EF04002F35087
:1007B8003E26010E3D24E96E000E3E20EA6E050E2F
:1007C800DBCFEBFFE806FCE2134A142AEDEF03F057
:1007D8008394F40EE126FF0EE2221200E652FB0E8D
:1007E800E3CF35F0FC0EE3503510D8B4FEEF03F03C
:1007F80000EF04F05BEF04F0FF0EE36AE32A16EF64
:1008080004F0FB0EE350D890E834356EFB0E35C08B
:10081800E3FFFC0EE350E834356EFC0E35C0E3FF11
:10082800FF0EE32AFC0EE3AE1CEF04F01EEF04F00B
:1008380005EF04F0FB0EE3CF3FF0FC0EE3CF40F0F2
:10084800FD0EE3CF3DF0FE0EE3CF3EF03F503D5CA2
:1008580040503E58D8A033EF04F035EF04F047EF8E
:1008680004F0FD0EE350356EFB0EE350355EFD0ED1
:1008780035C0E3FFFE0EE350356EFC0EE350355AEB
:10088800FE0E35C0E3FFD890FC0EE332FB0EE332D8
:10089800FF0EE350356E010E355EFF0E35C0E3FFE7
:1008A800D8A459EF04F05BEF04F01EEF04F0FD0E3E
:1008B800E3CF35F0FE0EE3CF36F0FB0EE126FF0E58
:1008C800E22212002E0EE126000EE222010E0101A4
:1008D800E6253F6E000EE721406ED20E3FC0E3FFD3
:1008E800D30E40C0E3FFE150D00FD96EE250DA6E6C
:1008F800FF0EDA22D50EE124E96EFF0EE220EA6E41
:10090800DECFEEFFDDCFEDFFD40EE124D96EFF0E72
:10091800E220DA6E000EDF6EE150CE0FD96EE250A3
:10092800DA6EFF0EDA22D70EE124E96EFF0EE2201E
:10093800EA6EDECFEEFFDDCFEDFFF90EE124D96ED2
:10094800FF0EE220DA6E000EDE6E000EDD6ED20EB5
:10095800E124D96EFF0EE220DA6E01EEE6F0EECF6A
:100968003FF0EDCF40F02E0E3F02F3CF3DF0F4CF35
:100978003EF04002F3503E262E0E3D24E96E010E55
:100988003E20EA6E2D0EDBCFEBFFE806FCE2E64BDD
:10099800E72BCE0EE126FF0EE2221200E652E652C7
:1009A800FE0EE8C1E3FFFF0EE9C1E3FF010E0101FE
:1009B800E6253F6E000EE721406E3FC0E6FF40C0CF
:1009C800E6FFFC0EE350010F3F6EFD0EE3CF40F053
:1009D800000E40223FC0E6FF40C0E6FFF2EC03F005
:1009E800FE0E35C0E3FFFF0E36C0E3FFFE0EE3CF79
:1009F8003FF0FF0EE3CF40F02E0E3F02F3CF3DF065
:100A0800F4CF3EF04002F3503E26020E3D24D96E4C
:100A1800010E3E20DA6EDF50D8A415EF05F017EF6F
:100A280005F0DAEF04F0FE0EE3CF35F0FF0EE3CF6A
:100A380036F0E552E5521200E652E652FA0EE3CFDE
:100A480040F0FC0EE3504002FE0EF3CFE3FFFF0E32
:100A5800F4CFE3FFFB0EE124D96EFF0EE220DA6E3D
:100A6800DF50406EFC0EE3504002F3CFF4FFF36A10
:100A7800E150FE0FD96EE250DA6EFF0EDA22F35023
:100A8800DE26F450DD22FA0EE3CF40F0FD0EE1241D
:100A9800D96EFF0EE220DA6EDF504002F3CFF4FF8A
:100AA800F36AE150FE0FD96EE250DA6EFF0EDA22D9
:100AB800F350DE26F450DD22FE0EE3CF35F0FF0EB4
:100AC800E3CF36F0FA0EE126FF0EE2221200F0EC38
:100AD80005F0136A146A2D6A2E6A8C0EE66E060EED
:100AE800E66E030EE66E000EE66E66EC04F0B80ED7
:100AF800E66E030EE66E020EE66E000EE66E66EC1D
:100B080004F0000EE66E000EE66E020EE66E000EB3
:100B1800E66E66EC04F010EC06F091EF05F006EFD7
:100B280000F02C0EF66E0C0EF76E000EF86E090033
:100B3800F5CF63F00900F5CF64F001EEEAF022EE9C
:100B480000F0EE6ADD50D950FCE1DA50FAE101EE2E
:100B580000F0EA0EEE6AE806FDE100EE01F0340E60
:100B6800EE6AE806FDE100016BEF05F0D00E315C9E
:100B7800070E3258D8B0C3EF05F0C5EF05F0C9EF3E
:100B880005F0314A322AD5EF05F0FE0EE124D96E80
:100B9800FF0EE220DA6E010EDE6E000EDD6E316AA7
:100BA800326AFA0EE126FF0EE222120083B6DFEF68
:100BB80005F0E2EF05F0010EE3EF05F0000EFF0A85
:100BC800406E40464046404683504018F70B401858
:100BD800836EDAEF05F012000101E86BE96BE66B52
:100BE800E76B04EC06F0B40EE66E0B0EE66E000E34
:100BF800E66E000EE66E66EC04F00CEC06F01200F1
:100C0800F28AF28CD59AD596070ED512D66A1200BA
:100C18009580958295941200F28ED58E1200D2ECB2
:060C280004F012000C00B4
:020000040020DA
:08000000FFFFFFFFFFFFFFFF00
:020000040030CA
:0E000000FF071F1EFF8385FF0FC00FE00F409C
:00000001FF
