:020000040000FA
:0400000006EF00F017
:100008000AED00F013EEEAF00CEF06F00600E1CF7F
:1000180023F0E2CF24F0D9CF25F0DACF26F0F3CFC2
:1000280027F0F4CF28F001C029F002C02AF009C057
:100038002BF00AC02CF00BC02DF00CC02EF014EEE3
:100048009CF0F29EF2A42BEF00F02DEF00F0C3EF2E
:1000580001F0F294D66A3906D8A03A0639503A1017
:10006800D8A439EF00F03BEF00F0C1EF01F02E0EFD
:10007800E66E000EE66EE8C1E6FFE9C1E6FF82EC37
:1000880005F0270E0124D96E010E0220DA6EDE502B
:10009800DE10D8B452EF00F054EF00F0DDEF00F0BE
:1000A800376A386A2E0EE66E000EE66EE8C1E6FF85
:1000B800E9C1E6FF82EC05F0020E0124D96E010EBB
:1000C8000220DA6E000EDF6E2E0EE66E000EE66E71
:1000D800E8C1E6FFE9C1E6FF82EC05F02A0E01243B
:1000E800D96E010E0220DA6EE8CFDFFF2E0EE66E23
:1000F800000EE66EE8C1E6FFE9C1E6FF82EC05F016
:10010800290E0124D96E010E0220DA6EE0CFDFFF3E
:100118002E0EE66E000EE66EE8C1E6FFE9C1E6FFC8
:1001280082EC05F02B0E0124D96E010E0220DA6E46
:10013800D8CFDFFF2E0EE66E000EE66EE8C1E6FFB2
:10014800E9C1E6FF82EC05F0270E0124D96E010E05
:100158000220DA6E000EDE6E000EDD6E2E0EE66EEA
:10016800000EE66EE8C1E6FFE9C1E6FF82EC05F0A5
:10017800000E216E010E226E070E2126000E22228D
:10018800015021260250222237502124D96E38509E
:100198002220DA6EFDCFDFFF374A382A0600FC50EE
:1001A800D8A4D9EF00F0DBEF00F0B2EF00F0EFEFEA
:1001B80000F02E0EE66E000EE66EE8C1E6FFE9C11D
:1001C800E6FF82EC05F0020E0124D96E010E022032
:1001D800DA6E000EDF6EACEC06F001C0E8F102C08A
:1001E800E9F12E0EE66E000EE66EE8C1E6FFE9C103
:1001F800E6FF82EC05F0270E0124D96E010E0220DD
:10020800DA6EDE50DE10D8A40CEF01F00EEF01F02C
:1002180029EF01F02E0EE66E000EE66EE8C1E6FF4D
:10022800E9C1E6FF82EC05F0050E0124D96E010E46
:100238000220DA6EDECF21F0DDCF22F021C0FDFFF3
:1002480022C0FEFFFF6ABCEF01F02E0EE66E000E24
:10025800E66EE8C1E6FFE9C1E6FF82EC05F0020EB2
:100268000124D96E010E0220DA6E010EDF6E2E0E09
:10027800E66E000EE66EE8C1E6FFE9C1E6FF82EC35
:1002880005F02A0E0124D96E010E0220DA6EDF5025
:10029800216E21502E0EE66E000EE66EE8C1E6FFD6
:1002A800E9C1E6FF82EC05F0290E0124D96E010EA2
:1002B8000220DA6EDF50E06E2E0EE66E000EE66E5D
:1002C800E8C1E6FFE9C1E6FF82EC05F02B0E012448
:1002D800D96E010E0220DA6EDF50D86E2E0EE66E51
:1002E800000EE66EE8C1E6FFE9C1E6FF82EC05F024
:1002F800270E0124D96E010E0220DA6EDECF21F01E
:10030800DDCF22F0FF0E2124376EFF0E2220386E3B
:10031800FC6AB3EF01F005002E0EE66E000EE66EE5
:10032800E8C1E6FFE9C1E6FF82EC05F0000E216EA8
:10033800010E226E070E2126000E222201502126D0
:100348000250222237502124D96E38502220DA6EEA
:10035800DF50FD6EFE6AFF6A3706D8A038063750B0
:100368003810D8A4BAEF01F0BCEF01F08FEF01F01C
:10037800F28E000E3A6E0C0E396EA3EC02F02EC00F
:100388000CF02DC00BF02CC00AF02BC009F02AC0CD
:1003980002F029C001F028C0F4FF27C0F3FF26C0EF
:1003A800DAFF25C0D9FF24C0E2FF23C0E1FF110016
:1003B800080EE126000EE22231503210D8A4E7EFF1
:1003C80001F0E9EF01F07FEF02F000019E519F116B
:1003D800D8B4F1EF01F0F3EF01F07FEF02F020EE77
:1003E80080F0060E016EFA0EDECFE3FFE828012E3C
:1003F800FBD7F80EE36AF90EE36AF80EE3CF0BF0C9
:10040800F90EE3CF0CF0060E0B02F3CF09F0F4CF90
:100418000AF00C02F3500A26860E0924D96E000E43
:100428000A20DA6EF80EE3CF0BF0F90EE3CF0CF0EA
:10043800060E0B02F3CF09F0F4CF0AF00C02F350CA
:100448000A26800E0924E96E000E0A20EA6E050EBF
:10045800DBCFEBFFE806FCE2F80EE350010F016E7C
:10046800F80E01C0E3FF016AF90EE3500120016EA6
:10047800F90E01C0E3FFF90EE3BE50EF02F0F90EEA
:10048800E3500CE1F80EE3CF01F0040E015ED8A0B2
:1004980050EF02F052EF02F001EF02F000019E0768
:1004A800D8A09F07FA0EE124D96EFF0EE220DA6E7B
:1004B80000EEA0F0050EDBCFEBFFE806FCE2000E35
:1004C800326E010E316EFE0EE124D96EFF0EE2206F
:1004D800DA6E000EDE6E000EDD6EFA0EE124D96EC5
:1004E800FF0EE220DA6E060EDECFE6FFE82C78EF8C
:1004F80002F05DEC06F031043210D8A486EF02F069
:1005080088EF02F0E0EF01F00001A451A511D8A492
:1005180090EF02F092EF02F0E0EF01F020EEA0F091
:10052800060EDECFE6FFE82C95EF02F05DEC06F054
:10053800E0EF01F0F80EE126FF0EE2221200E6528B
:10054800E652E652E652FE0EE36AFF0EE36AFC0E3E
:10055800E36AFD0EE36A35EF03F0FC0EE3CF0BF020
:10056800FD0EE3CF0CF02E0E0B02F3CF09F0F4CF03
:100578000AF00C02F3500A26020E0924D96E010E65
:100588000A20DA6E030EDE18D8A4CDEF02F0CFEF02
:1005980002F026EF03F0FC0EE3CF0BF0FD0EE3CFE5
:1005A8000CF02E0E0B02F3CF09F0F4CF0AF00C0278
:1005B800F3500A262C0E0924D96E010E0A20DA6E91
:1005C800DE06000EDD5AFC0EE3CF0BF0FD0EE3CF86
:1005D8000CF02E0E0B02F3CF09F0F4CF0AF00C0248
:1005E800F3500A262C0E0924D96E010E0A20DA6E61
:1005F800DE50DE10D8A403EF03F005EF03F026EF7A
:1006080003F0FC0EE3CF0BF0FD0EE3CF0CF02E0E43
:100618000B02F3CF09F0F4CF0AF00C02F3500A26CC
:10062800020E0924D96E010E0A20DA6E000EDF6E62
:10063800010E0B6E000E0C6EFE0E0BC0E3FFFF0EDC
:100648000CC0E3FFFC0EE350010F016EFC0E01C06D
:10065800E3FF016AFD0EE3500120016EFD0E01C0AB
:10066800E3FFFC0EE3CF01F00101E651015CFD0E52
:10067800E3CF01F0E7510158D8A045EF03F047EF69
:1006880003F0B1EF02F0FE0EE3CF01F0FF0EE3CF6F
:1006980002F0E552E552E552E55212000C0EE12651
:1006A800000EE222838883A05CEF03F05EEF03F084
:1006B800A6EF03F000019F5107E1050E9E5DD8B03B
:1006C80068EF03F06AEF03F0A6EF03F0FA0EE36AAF
:1006D800FB0EE36AFC0EE124D96EFF0EE220DA6E0F
:1006E800010EDE6E000EDD6EFE0EE124D96EFF0EE9
:1006F800E220DA6E000EDE6E000EDD6EFA0EE124E8
:10070800D96EFF0EE220DA6E00EE9EF0EECF0BF00F
:10071800EDCF0CF0060E0B02F3CF09F0F4CF0AF080
:100728000C02F3500A26800E0924E96E000E0A20F6
:10073800EA6E050EDBCFEBFFE806FCE29E4B9F2B33
:1007480056EF03F083A2ABEF03F0ADEF03F056EFE3
:1007580003F000019F5107E1050E9E5DD8B0B7EF89
:1007680003F0B9EF03F056EF03F0010E0B6E000E25
:100778000C6EF40E0BC0E3FFF50E0CC0E3FFF60E93
:10078800E124D96EFF0EE220DA6E020EDE6E000E54
:10079800DD6EF80EE124D96EFF0EE220DA6E000E4F
:1007A800DE6E000EDD6EF40EE124D96EFF0EE2203F
:1007B800DA6E00EE9EF0EECF0BF0EDCF0CF0060EE9
:1007C8000B02F3CF09F0F4CF0AF00C02F3500A261B
:1007D800800E0924E96E000E0A20EA6E050EDBCFB2
:1007E800EBFFE806FCE2A2EF03F0F40EE126FF0EB1
:1007F800E2221200E652FB0EE3CF01F0FC0EE350BA
:100808000110D8B40AEF04F00CEF04F067EF04F01D
:10081800FF0EE36AE32A22EF04F0FB0EE350D890C0
:10082800E834016EFB0E01C0E3FFFC0EE350E83430
:10083800016EFC0E01C0E3FFFF0EE32AFC0EE3AEDF
:1008480028EF04F02AEF04F011EF04F0FB0EE3CFD9
:100858000BF0FC0EE3CF0CF0FD0EE3CF09F0FE0E1B
:10086800E3CF0AF00B50095C0C500A58D8A03FEFB0
:1008780004F041EF04F053EF04F0FD0EE350016E75
:10088800FB0EE350015EFD0E01C0E3FFFE0EE350D8
:10089800016EFC0EE350015AFE0E01C0E3FFD89032
:1008A800FC0EE332FB0EE332FF0EE350016E010E45
:1008B800015EFF0E01C0E3FFD8A465EF04F067EF07
:1008C80004F02AEF04F0FD0EE3CF01F0FE0EE3CFB3
:1008D80002F0FB0EE126FF0EE22212002E0EE126A8
:1008E800000EE222010E0101E6250B6E000EE72143
:1008F8000C6ED20E0BC0E3FFD30E0CC0E3FFE15029
:10090800D00FD96EE250DA6EFF0EDA22D50EE1244E
:10091800E96EFF0EE220EA6EDECFEEFFDDCFEDFFDF
:10092800D40EE124D96EFF0EE220DA6E000EDF6EDF
:10093800E150CE0FD96EE250DA6EFF0EDA22D70EF2
:10094800E124E96EFF0EE220EA6EDECFEEFFDDCF96
:10095800EDFFF90EE124D96EFF0EE220DA6E000EEB
:10096800DE6E000EDD6ED20EE124D96EFF0EE2209F
:10097800DA6E01EEE6F0EECF0BF0EDCF0CF02E0EB6
:100988000B02F3CF09F0F4CF0AF00C02F3500A2659
:100998002E0E0924E96E010E0A20EA6E2D0EDBCF19
:1009A800EBFFE806FCE2E64BE72BCE0EE126FF0E56
:1009B800E222120031043210D8A4E5EF04F0E7EF88
:1009C80004F015EF05F00001A405A511D8A4EFEF78
:1009D80004F0F1EF04F015EF05F02F503010D8A413
:1009E800F8EF04F0FAEF04F015EF05F020EEA0F0B0
:1009F80000EEA6F0050EDBCFEBFFE806FCE2316A5D
:100A0800326A000E306E010E2F6E20EEA6F0060E32
:100A1800DECFE6FFE82C0CEF05F0CDEC05F0DEEFBD
:100A280004F031043210D8A41CEF05F01EEF05F0D5
:100A3800DEEF04F00001A405A511D8A426EF05F007
:100A480028EF05F0DEEF04F02F043010D8A42FEFC4
:100A580005F031EF05F0DEEF04F009EF05F01200C4
:100A6800E652E652FE0EE8C1E3FFFF0EE9C1E3FFDE
:100A7800010E0101E6250B6E000EE7210C6E0BC07E
:100A8800E6FF0CC0E6FFFC0EE350010F0B6EFD0EF7
:100A9800E3CF0CF0000E0C220BC0E6FF0CC0E6FF03
:100AA800FEEC03F0FE0E01C0E3FFFF0E02C0E3FF01
:100AB800FE0EE3CF0BF0FF0EE3CF0CF02E0E0B0271
:100AC800F3CF09F0F4CF0AF00C02F3500A26020E15
:100AD8000924D96E010E0A20DA6EDF50D8A477EF08
:100AE80005F079EF05F03CEF05F0FE0EE3CF01F0DD
:100AF800FF0EE3CF02F0E552E5521200E652E6524D
:100B0800FA0EE3CF0CF0FC0EE3500C02FE0EF3CF0E
:100B1800E3FFFF0EF4CFE3FFFB0EE124D96EFF0ED7
:100B2800E220DA6EDF500C6EFC0EE3500C02F3CFBD
:100B3800F4FFF36AE150FE0FD96EE250DA6EFF0E51
:100B4800DA22F350DE26F450DD22FA0EE3CF0CF061
:100B5800FD0EE124D96EFF0EE220DA6EDF500C02A2
:100B6800F3CFF4FFF36AE150FE0FD96EE250DA6E6C
:100B7800FF0EDA22F350DE26F450DD22FE0EE3CF1C
:100B880001F0FF0EE3CF02F0FA0EE126FF0EE2229B
:100B98001200D00E335C070E3458D8B0D6EF05F0EB
:100BA800D8EF05F0DCEF05F0334A342A07EF06F0FA
:100BB8002F6A306A336A346A000E0001A56F020E8C
:100BC800A46FFA0EE124D96EFF0EE220DA6E00EE71
:100BD800CAF0EECF0BF0EDCF0CF0060E0B02F3CF00
:100BE80009F0F4CF0AF00C02F3500A26AC0E0924DF
:100BF800E96E000E0A20EA6E050EDBCFEBFFE80671
:100C0800FCE2CA4BCB2BFA0EE126FF0EE2221200C1
:100C18005E0EF66E0D0EF76E000EF86E0900F5CF3B
:100C280039F00900F5CF3AF001EEEAF022EE00F0D3
:100C3800EE6ADD50D950FCE1DA50FAE101EE00F03D
:100C4800EA0EEE6AE806FDE100EE80F04C0EEE6A70
:100C5800E806FDE100EE2FF00A0EEE6AE806FDE177
:100C6800000137EF06F07FEC06F0A40EE66E060EE4
:100C7800E66E030EE66E000EE66E72EC04F0BC0E35
:100C8800E66E090EE66E020EE66E000EE66E72EC79
:100C980004F0B80EE66E030EE66E020EE66E000E67
:100CA800E66E72EC04F0A6EC06F059EF06F006EFDB
:100CB80000F0D00E355C070E3658D8B066EF06F057
:100CC80068EF06F06DEF06F08384354A362A7AEF2E
:100CD80006F08394FE0EE124D96EFF0EE220DA6E50
:100CE800010EDE6E000EDD6E356A366AFA0EE126FA
:100CF800FF0EE22212000101E86BE96BE66BE76B7D
:100D080000019E6B9F6BCA6BCB6B98EC06F0520E82
:100D1800E66E0D0EE66E000EE66E000EE66E72ECE6
:100D280004F0A0EC06F01200F28AF28CD59AD5965F
:100D3800070ED512D66A12009580958295949596DD
:100D480095981200F28ED58E1200A9EF06F01200C7
:080D580034EC05F012000C0060
:020000040020DA
:08000000FFFFFFFFFFFFFFFF00
:020000040030CA
:0E000000FF071F1EFF8385FF0FC00FE00F409C
:00000001FF
